:1000000071C000008FC000008DC000008BC00000D8
:1000100089C0000087C0000085C0000083C00000C8
:1000200081C000007FC000007DC000007BC00000D8
:1000300079C0000077C0000075C0000073C00000E8
:1000400071C000006FC000006DC000006BC00000F8
:1000500069C0000067C0000065C0000072C00000F9
:1000600061C000005FC000005DC000005BC0000018
:1000700059C0000057C0000055C0000053C0000028
:1000800051C000004FC000004DC000004BC0000038
:1000900049C0000047C0000045C0000043C0000048
:1000A00041C000003FC000003DC000003BC0000058
:1000B00039C0000037C0000035C0000033C0000068
:1000C00031C000002FC000002DC000002BC0000078
:1000D00029C0000027C0000025C0000023C0000088
:1000E00021C0000011241FBECFEFD1E2DEBFCDBF83
:1000F00000E00CBF12E0A0E0B2E0EAE9F2E000E0CC
:100100000BBF02C007900D92A030B107D9F71BBEFC
:1001100012E0A0E0B2E001C01D92A930B107E1F702
:1001200004D0B9C06DCF08950895CF93DF9351D017
:10013000FADFC0E0D0E0F8DF2097E9F30E9400008A
:10014000FACF1F920F920FB60F9211242F933F9365
:100150008F939F93AF93BF93809104029091050278
:10016000A0910602B0910702309108020196A11DEC
:10017000B11D232F2D5F2D3720F02D570196A11D86
:10018000B11D209308028093040290930502A0936E
:100190000602B09307028091000290910102A091A3
:1001A0000202B09103020196A11DB11D80930002CD
:1001B00090930102A0930202B0930302BF91AF910A
:1001C0009F918F913F912F910F900FBE0F901F9095
:1001D0001895789484B5826084BD84B5816084BDAF
:1001E00085B5826085BD85B5816085BDEEE6F0E0B0
:1001F000808181608083E1E8F0E01082808182600C
:100200008083808181608083E0E8F0E0808181608C
:100210008083E1EBF0E0808184608083E0EBF0E0BC
:10022000808181608083E1E9F0E080818260808369
:10023000808181608083E0E9F0E08081816080835B
:10024000E1EAF0E080818260808380818160808348
:10025000E0EAF0E0808181608083E1E2F1E080818A
:1002600082608083808181608083E0E2F1E0808130
:1002700081608083EAE7F0E0808184608083808110
:1002800082608083808181608083808180688083B8
:0A0290001092C1000895F894FFCF0A
:00000001FF
