:100000003DC1000068C1000066C1000064C100007D
:1000100062C1000060C100005EC100005CC1000060
:100020005AC1000058C1000056C1000054C1000070
:1000300052C1000050C100004EC100004CC1000080
:100040004AC100000C94FA1C46C1000044C10000E3
:1000500042C1000040C100003EC100000C94501895
:100060003AC100000C9467120C94AB1334C1000029
:1000700032C1000030C100002EC100002CC10000C0
:100080000C94CD1C28C1000026C1000024C1000032
:100090000C94A7120C94EA131EC100001CC10000AE
:1000A0001AC1000018C100000C94A01C14C100006B
:1000B00012C1000010C100000EC100000C94731C9E
:1000C0000AC1000008C1000006C100000C94E7123C
:1000D0000C94291400C100000C9427130C9468148C
:1000E000FAC00000084AD73B3BCE016E84BCBFFD7E
:1000F000C12F3D6C74319ABD56833DDA3D00C77FF8
:1001000011BED9E4BB4C3E916BAAAABE0000008090
:100110003F072C7AA5BA6CC590DA3B9365FC8BBC83
:1001200053F810FD3C5692834DBD879D3AB63DCBAA
:10013000C9BF5BBE73DA0FC93F05A84CCDB2D44E20
:10014000B93836A9020C50B9918688083CA6AAAAEB
:100150002ABE000000803F00002100240027002A62
:10016000002D003000330001010000040107010AE6
:100170000100002200250028002B002E0031003451
:100180000002010000050108010B0100002000230E
:1001900000260029002C002F00320000010000037F
:1001A00001060109010505050507050808080802FB
:1001B0000202020A0A080804040404010101010100
:1001C0000101010303030303030303040707070CEF
:1001D0000C0C0C0C0C0C0C020202020606060606A5
:1001E0000606060B0B0B0B0B0B0B0B010210202052
:1001F000080810204010204080020102010804027B
:1002000001010204081020408080402010080402F0
:100210000180040201804020100804020108040249
:10022000010102040810204080010204081020404F
:10023000800000090A02080B0C0D070603040100E8
:1002400000000000000000000000000000000000AE
:100250000000000000000000000000000011100F6E
:10026000000000000000000000000000000000008E
:1002700000000000000000007702D81511241FBE06
:10028000CFEFD1E2DEBFCDBF00E00CBF12E0A0E0B7
:10029000B2E0EEE2F3E400E00BBF02C007900D9283
:1002A000A835B107D9F71BBE17E0A8E5B2E001C039
:1002B0001D92AC33B107E1F712E0CCE7D2E004C005
:1002C0002297FE010E949121C837D107C9F70E94E9
:1002D0000E170C94952194CECF93DF93BC018230FE
:1002E000910510F462E070E0A0913A07B0913B07ED
:1002F000ED01E0E0F0E040E050E021C0888199812C
:100300008617970769F48A819B81309719F0938348
:10031000828304C090933B0780933A07FE0134C068
:100320006817790738F44115510519F084179507B6
:1003300008F4AC01FE018A819B819C01E9012097B0
:10034000E9F641155105A9F1CA01861B970B0497DF
:1003500008F4BA01E0E0F0E02AC08D919C91119779
:1003600084179507F9F46417750781F412968D9137
:100370009C911397309719F09383828304C09093D4
:100380003B0780933A07FD0132964CC0CA01861B99
:10039000970BFD01E80FF91F6193719302978D93FD
:1003A0009C9340C0FD01828193819C01D9011097EB
:1003B000A1F68091380790913907892B41F48091FB
:1003C000290290912A02909339078093380740912F
:1003D0002B0250912C024115510541F44DB75EB7E7
:1003E0008091270290912802481B590B20913807D1
:1003F00030913907CA01821B930B8617970780F04B
:10040000AB014E5F5F4F8417950750F0420F531FAB
:100410005093390740933807F9016193719302C0F3
:10042000E0E0F0E0CF01DF91CF910895CF93DF932B
:10043000009709F450C0EC0122971B821A82A09108
:100440003A07B0913B07109709F140E050E0AC1734
:10045000BD0708F1BB83AA83FE0121913191E20F10
:10046000F31FAE17BF0779F48D919C911197280F58
:10047000391F2E5F3F4F3983288312968D919C91AF
:1004800013979B838A834115510571F4D0933B07E1
:10049000C0933A0720C012968D919C911397AD019D
:1004A000009711F0DC01D3CFFA01D383C2832191ED
:1004B0003191E20FF31FCE17DF0769F4888199812C
:1004C000280F391F2E5F3F4FFA01318320838A8125
:1004D0009B8193838283DF91CF910895FB01DC019F
:1004E00002C001900D9241505040D8F70895CF932B
:1004F000DF93CAE7D2E0CE010E94461A239682E03B
:10050000C03BD807C1F7DF91CF9108952F923F925A
:100510004F925F926F927F928F929F92AF92BF9213
:10052000CF92DF92EF92FF920F931F93DF93CF93BF
:10053000CDB7DEB7C056D0400FB6F894DEBF0FBEC1
:10054000CDBF6C016091640270916502809166027A
:100550009091670225E33AEF4EE85CEB0E941E2083
:100560007B018C01C8010E94812023966CAF7DAF76
:100570008EAF9FAF2397B701C8010E94431E6BAF98
:100580007CAF8DAF9EAF60916802709169028091DF
:100590006A0290916B0225E33AEF4EE85CEB0E9411
:1005A0001E207B018C01C8010E9481206FAB78AFB7
:1005B00089AF9AAFB701C8010E94431E6BAB7CABF9
:1005C0008DAB9EAB60916C0270916D0280916E025A
:1005D00090916F0225E33AEF4EE85CEB0E941E20FB
:1005E0007B018C01C8010E9481206FA778AB89AB89
:1005F0009AABB701C8010E94431E6BA77CA78DA7C9
:100600009EA720915E0230915F0229963FAF2EAFE8
:100610002997809160029091610227969FAF8EAFDB
:100620002797A0916202B09163022596BFAFAEAF4B
:100630002597F601E65AFF4FFAA7E9A796012A5C2B
:100640003F4F38A72FA31EA21DA2A9A5BAA52D9082
:100650003C9011971296ED91FC911397A196FFAFE4
:10066000EEAFA19714962D913C9115976F963FAFE1
:100670002EAF6F9718966D917C9119976E0F7F1F13
:10068000882777FD8095982F0E94E11E4B015C0121
:100690002BA53CA54DA55EA50E941E206B966CAFB8
:1006A0007DAF8EAF9FAF6B97A9A5BAA516966D913A
:1006B0007C911797620D731D882777FD8095982F81
:1006C0000E94E11E2B013C012BA53CA54DA55EA57A
:1006D0000E941E2067966CAF7DAF8EAF9FAF67976D
:1006E000E9A5FAA5628573856F962EAD3FAD6F972C
:1006F000620F731F882777FD8095982F0E94E11E57
:1007000063966CAF7DAF8EAF9FAF63972BAD3CAD63
:100710004DAD5EAD0E941E202F966CAF7DAF8EAFAB
:100720009FAF2F97C501B4012BA93CA94DA95EA984
:100730000E941E202FA538A949A95AA90E941E204F
:100740007B018C016B966CAD7DAD8EAD9FAD6B97D3
:1007500023962CAD3DAD4EAD5FAD23970E941E207C
:100760002FA938AD49AD5AAD0E941E209B01AC01A6
:10077000C801B7010E947D1D7B018C0167966CAD9D
:100780007DAD8EAD9FAD67972BA93CA94DA95EA904
:100790000E941E209B01AC01C801B7010E947D1D73
:1007A0007B018C01C301B2012FA538A949A95AA91F
:1007B0000E941E2023962CAD3DAD4EAD5FAD23971C
:1007C0000E941E202FA938AD49AD5AAD0E941E20AF
:1007D0009B01AC01C801B7010E947C1D7B018C010B
:1007E0002F966CAD7DAD8EAD9FAD2F972FA938ADF7
:1007F00049AD5AAD0E941E209B01AC01C801B70152
:100800000E947C1DA30192010E947C1D7B018C0132
:1008100020E030E040E050E00E94132088234CF0BC
:10082000C801B70120E030E040E05FE30E947D1D99
:1008300008C0C801B70120E030E040E05FE30E945B
:100840007C1D0E94AE1E6D967FAF6EAF6D97C50189
:10085000B4012BAD3CAD4DAD5EAD0E941E202BA56D
:100860003CA54DA55EA50E941E207B018C01C30105
:10087000B2012BAD3CAD4DAD5EAD0E941E202FA54B
:1008800038A949A95AA90E941E209B01AC01C801A0
:10089000B7010E947C1D7B018C0163966CAD7DAD20
:1008A0008EAD9FAD639723962CAD3DAD4EAD5FAD44
:1008B00023970E941E209B01AC01C801B7010E9432
:1008C0007D1DA50194010E947C1D7B018C0120E00F
:1008D00030E040E050E00E94132088234CF0C80133
:1008E000B70120E030E040E05FE30E947D1D08C0DA
:1008F000C801B70120E030E040E05FE30E947C1DCA
:100900000E94AE1E2B967FAF6EAF2B97C501B40130
:100910002FA538A949A95AA90E941E202FA938AD90
:1009200049AD5AAD0E941E207B018C016B966CADC7
:100930007DAD8EAD9FAD6B972BA93CA94DA95EA94E
:100940000E941E2023962CAD3DAD4EAD5FAD23978A
:100950000E941E209B01AC01C801B7010E947C1DB2
:100960007B018C0167966CAD7DAD8EAD9FAD6797B9
:100970002FA938AD49AD5AAD0E941E209B01AC0194
:10098000C801B7010E947D1D7B018C01C301B2012A
:100990002BA93CA94DA95EA90E941E202FA538A90C
:1009A00049A95AA90E941E2023962CAD3DAD4EADFB
:1009B0005FAD23970E941E209B01AC01C801B701C7
:1009C0000E947D1D7B018C012F966CAD7DAD8EAD9F
:1009D0009FAD2F972BA93CA94DA95EA90E941E206F
:1009E0009B01AC01C801B7010E947D1D63962CAD2F
:1009F0003DAD4EAD5FAD63970E947C1D7B018C01C8
:100A000020E030E040E050E00E94132088234CF0CA
:100A1000C801B70120E030E040E05FE30E947D1DA7
:100A200008C0C801B70120E030E040E05FE30E9469
:100A30007C1D0E94AE1EE1E0F0E0EC0FFD1F8DA1D9
:100A40009EA1E80FF91FAFA1B8A58D919C91280E2A
:100A5000391E29962EAD3FAD2997221A330A6D967D
:100A60008EAD9FAD6D97280E391E31822082EDE04C
:100A7000F0E0EC0FFD1FADA1BEA1EA0FFB1FAFA17F
:100A8000B8A512968D919C911397A1962EAD3FAD6E
:100A9000A197280F391F27968EAD9FAD2797281B4A
:100AA000390B2B96AEADBFAD2B972A0F3B1F318371
:100AB0002083E9E1F0E0EC0FFD1F2DA13EA1E20F44
:100AC000F31FAFA1B8A514968D919C9115976F96C1
:100AD0002EAD3FAD6F97280F391F25968EAD9FAD78
:100AE0002597281B390B260F371F31832083A9A593
:100AF000BAA5D496BAA7A9A7EFA1F8A5F496F8A726
:100B0000EFA32DA13EA12E5F3F4F3EA32DA32C307E
:100B1000310509F09ACD6D857E85882777FD809512
:100B2000982F0E94E11E23EF34E045E35FE30E942B
:100B30001E202B013C0169817A81882777FD8095F1
:100B4000982F0E94E11E4B015C0123EF34E045E346
:100B50005FEB0E941E209B01AC01C301B2010E9409
:100B60007D1D7B018C0120E030E040E050E00E94E0
:100B7000132088234CF0C801B70120E030E040E0AA
:100B80005FE30E947D1D08C0C801B70120E030E08E
:100B900040E05FE30E947C1D0E94AE1ED601DC9601
:100BA0006D937D938D939C93DF97C501B40123EFE3
:100BB00034E045E35FE30E941E209B01AC01C301CA
:100BC000B2010E947D1D7B018C0120E030E040E0FD
:100BD00050E00E94132088234CF0C801B70120E0A8
:100BE00030E040E05FE30E947D1D08C0C801B7010E
:100BF00020E030E040E05FE30E947C1D0E94AE1EDA
:100C0000E0E4F0E0CE0EDF1ED6016D937D938D9370
:100C10009D936D01898D9A8DAA2797FDA095BA2F76
:100C2000F60180839183A283B3832CEB3FEFC20E46
:100C3000D31E6F857889882777FD8095982F0E942D
:100C4000E11E2B013C016B817C81882777FD80951B
:100C5000982F0E94E11E4B015C01C301B2012EE2FC
:100C60003DEB4BE353EB0E941E20A50194010E9433
:100C70007C1D7B018C0120E030E040E050E00E94D0
:100C8000132088234CF0C801B70120E030E040E099
:100C90005FE30E947D1D08C0C801B70120E030E07D
:100CA00040E05FE30E947C1D0E94AE1EA0E7B0E022
:100CB000CA0EDB1EF601608371838283938320E971
:100CC0003FEFC20ED31EC501B4012EE23DEB4BE354
:100CD00053EB0E941E209B01AC01C301B2010E9494
:100CE0007D1D7B018C0120E030E040E050E00E945F
:100CF000132088234CF0C801B70120E030E040E029
:100D00005FE30E947D1D08C0C801B70120E030E00C
:100D100040E05FE30E947C1D0E94AE1EA4E7B0E0AD
:100D2000CA0EDB1EF60161937193819391936F015B
:100D30008B8D9C8DAA2797FDA095BA2F80839183D8
:100D4000A283B38328E83FEFC20ED31E69897A8954
:100D5000882777FD8095982F0E94E11E2B013C018A
:100D60006D817E81882777FD8095982F0E94E11EF6
:100D700023EF34E045E35FEB0E941E204B015C0152
:100D8000C301B20123EF34E045E35FEB0E941E2074
:100D9000A50194010E947D1D7B018C0120E030E0C3
:100DA00040E050E00E94132088234CF0C801B701B6
:100DB00020E030E040E05FE30E947D1D08C0C801F4
:100DC000B70120E030E040E05FE30E947C1D0E941C
:100DD000AE1EA4EAB0E0CA0EDB1EF601608371838A
:100DE000828393832CE53FEFC20ED31EC301B20171
:100DF00023EF34E045E35FE30E941E20A501940148
:100E00000E947D1D7B018C0120E030E040E050E03D
:100E10000E94132088234CF0C801B70120E030E085
:100E200040E05FE30E947D1D08C0C801B70120E0DB
:100E300030E040E05FE30E947C1D0E94AE1EA8EA05
:100E4000B0E0CA0EDB1EF60161937193819391931A
:100E50006F018D8D9E8DAA2797FDA095BA2F808357
:100E60009183A283B38324E53FEFC20ED31E6B8927
:100E70007C89882777FD8095982F0E94E11E2B01A1
:100E80003C016F817885882777FD8095982F0E9497
:100E9000E11E4B015C01C301B20124EF34E045E3E4
:100EA0005FEB0E941E207B018C01C501B40122EF83
:100EB00034E045E35FE30E941E209B01AC01C801C2
:100EC000B7010E947D1D7B018C0120E030E040E0F5
:100ED00050E00E94132088234CF0C801B70120E0A5
:100EE00030E040E05FE30E947D1D08C0C801B7010B
:100EF00020E030E040E05FE30E947C1D0E94AE1ED7
:100F0000A8EDB0E0CA0EDB1EF60160837183828318
:100F1000938328E23FEFC20ED31EC301B20122EF3A
:100F200034E045E35FEB0E941E207B018C01C5018C
:100F3000B40124EF34E045E35FEB0E941E209B01E7
:100F4000AC01C801B7010E947D1D7B018C0120E02E
:100F500030E040E050E00E94132088234CF0C801AC
:100F6000B70120E030E040E05FE30E947D1D08C053
:100F7000C801B70120E030E040E05FE30E947C1D43
:100F80000E94AE1EACEDB0E0CA0EDB1EF60161930E
:100F90007193819391936F018F8D98A1AA2797FDEB
:100FA000A095BA2F80839183A283B38320E23FEF81
:100FB000C20ED31E6D897E89882777FD8095982F74
:100FC0000E94E11E2B013C0169857A85882777FD07
:100FD0008095982F0E94E11E4B015C01C301B20174
:100FE0002EE23EED4CE452E30E941E20A501940146
:100FF0000E947D1D7B018C0120E030E040E050E04C
:101000000E94132088234CF0C801B70120E030E093
:1010100040E05FE30E947D1D08C0C801B70120E0E9
:1010200030E040E05FE30E947C1D0E94AE1EACE019
:10103000B1E0CA0EDB1EF601608371838283938365
:1010400024EF3EEFC20ED31EC501B4012EE23EEDE9
:101050004CE452E30E941E20A30192010E947C1DD9
:101060007B018C0120E030E040E050E00E94132042
:1010700088234CF0C801B70120E030E040E05FE396
:101080000E947D1D08C0C801B70120E030E040E0AB
:101090005FE30E947C1D0E94AE1EA0E1B1E0CA0E7B
:1010A000DB1EF60161937193819391936F0189A186
:1010B0009AA1AA2797FDA095BA2F80839183A28336
:1010C000B3832CEE3EEFC20ED31E6F89788D882736
:1010D00077FD8095982F0E94E11E2B013C016B85C6
:1010E0007C85882777FD8095982F0E94E11E4B0113
:1010F0005C01C301B20121EF34E045E35FE30E94EC
:101100001E207B018C01C501B40125EF34E045E3CD
:101110005FE30E941E209B01AC01C801B7010E9441
:101120007D1D7B018C0120E030E040E050E00E941A
:10113000132088234CF0C801B70120E030E040E0E4
:101140005FE30E947D1D08C0C801B70120E030E0C8
:1011500040E05FE30E947C1D0E94AE1EA0E4B1E06F
:10116000CA0EDB1EF601608371838283938320ECB9
:101170003EEFC20ED31EC301B20125EF34E045E3BA
:101180005FEB0E941E207B018C01C501B40121EFA1
:1011900034E045E35FE30E941E209B01AC01C801DF
:1011A000B7010E947D1D7B018C0120E030E040E012
:1011B00050E00E94132088234CF0C801B70120E0C2
:1011C00030E040E05FE30E947D1D08C0C801B70128
:1011D00020E030E040E05FE30E947C1D0E94AE1EF4
:1011E000A4E4B1E0CA0EDB1EF60161937193819312
:1011F00091938BA19CA1AA2797FDA095BA2F8083DC
:101200009183A283B383C05ADF4F0FB6F894DEBF39
:101210000FBECDBFCF91DF911F910F91FF90EF9047
:10122000DF90CF90BF90AF909F908F907F906F9006
:101230005F904F903F902F9008959C01443B510543
:1012400054F0CB01880F991F860F971F820F931FB1
:1012500063EB70E012C0CB01880F991F14161506BE
:101260003CF0860F971F820F931F60E070E005C06F
:10127000860F971F820F931FBA010C949C1A2F920E
:101280003F924F925F926F927F928F929F92AF9216
:10129000BF92CF92DF92EF92FF920F931F93DF9353
:1012A000CF93CDB7DEB7A2970FB6F894DEBF0FBECF
:1012B000CDBF9E8F8D8F809158029091590297FFDC
:1012C00003C0909581959F4F0697BCF480915A0278
:1012D00090915B0297FF03C0909581959F4F069771
:1012E00064F480915C0290915D0297FF03C0909539
:1012F00081959F4F06970CF407C582E196E060E068
:1013000072E00E943D18CD8CDE8C2EE631E0C20EDC
:10131000D31ED6016D917C9182E196E04AE050E0C7
:101320000E94201882E196E06DE072E00E943D1874
:1013300082E196E068EE73E04AE050E00E942018F7
:10134000809158029091590224E630E0FC01E29F1E
:10135000C001E39F900DF29F900D11246FE770E0A4
:101360000E942B216F8F78A380915A0290915B028B
:10137000AC01429FC001439F900D529F900D1124DC
:101380006FE770E00E942B2169A37AA320915C0291
:1013900030915D02C901E4E0880F991FEA95E1F7F9
:1013A000821B930B6FE770E00E942B21882777FD4B
:1013B0008095982F0E94E11E25E33AEF4EE85CE30A
:1013C0000E941E207B018C01C8010E9481206F8B2E
:1013D000788F898F9A8FB701C8010E94431E6B8B4B
:1013E0007C8B8D8B9E8B8D8D9E8D865A9F4F9A8B7D
:1013F000898BABE3B2E0B88BAF87AD8CBE8CE6E3F4
:10140000F0E0AE0EBF1E9E012F5F3F4F3E872D873F
:10141000A989BA8918966D917C91199712962D9188
:101420003C911397620F731F882777FD8095982F43
:101430000E94E11E1B012C01E989FA8966817781EE
:1014400020813181620F731F882777FD8095982F47
:101450000E94E11E3B014C01C201B1012F89388D70
:10146000498D5A8D0E941E207B018C01C401B3015D
:101470002B893C894D895E890E941E209B01AC010D
:10148000C801B7010E947D1DA40193010E947C1D2B
:101490007B018C0120E030E040E050E00E9413200E
:1014A00088234CF0C801B70120E030E040E05FE362
:1014B0000E947D1D08C0C801B70120E030E040E077
:1014C0005FE30E947C1D0E94AE1E7C8F6B8FC20169
:1014D000B1012B893C894D895E890E941E207B01C8
:1014E0008C01C401B3012F89388D498D5A8D0E941A
:1014F0001E209B01AC01C801B7010E947C1DA20106
:1015000091010E947C1D7B018C0120E030E040E0D5
:1015100050E00E94132088234CF0C801B70120E05E
:1015200030E040E05FE30E947D1D08C0C801B701C4
:1015300020E030E040E05FE30E947C1D0E94AE1E90
:10154000EB8DFC8D2F8D38A1E20FF31F09A11AA19D
:10155000060F171F9F01F7FF04C0222733272E1BFA
:101560003F0BC80117FF04C088279927801B910BE8
:10157000281739073CF0E230F10514F0CF0106C01E
:10158000CF010DC0023011054CF0C80162E070E0DF
:101590000E942B21709561957F4F05C0C80162E0C4
:1015A00070E00E942B21AD85BE856C9311967C93D3
:1015B000AF85B8898D919C918630910509F4B1C1B0
:1015C00087309105B4F48330910509F4D4C0843098
:1015D00091053CF48130910539F1029709F06DC312
:1015E0007DC08430910509F408C1059709F065C3F1
:1015F0004EC18930910509F44AC28A30910544F4FC
:101600008730910509F4CFC1089709F056C30DC280
:101610008B30910509F4BFC28B3091050CF479C26F
:101620000C9709F04AC301C3D6018D919C919C018E
:10163000E29FC001E39F900DF29F900D112460E2A4
:1016400070E00E942B219B01CF0162E070E00E94BC
:101650002B21261B370BD5012D933C93F60180815E
:1016600091819C01029FC001039F900D129F900DDC
:10167000112460E270E00E942B219B01C80162E00E
:1016800070E00E942B21261B370BD50113963C934B
:101690002E93129720813181ED85FE858081918185
:1016A000AC01249FC001259F900D349F900D112403
:1016B00060E170E00E942B21D50115967C936E931A
:1016C0001497F601808191810F970CF4F6C282E0A5
:1016D00090E0AF85B8898D939C93EFC2D6018D9130
:1016E0009C919C01E29FC001E39F900DF29F900DA1
:1016F000112460E270E00E942B21D5016D937C9350
:10170000F601808191819C01029FC001039F900D91
:10171000129F900D112460E270E00E942B21D501F0
:1017200013967C936E931297ED85FE85208131810F
:10173000D6018D919C91FC012E9FC0012F9F900D91
:101740003E9F900D112460E170E00E942B21261B2A
:10175000370BD50115963C932E931497F601808193
:1017600091810F970CF4A9C2E3E0F0E0AF85B8894E
:10177000ED93FC93A2C2D6018D919C919C01E29FB6
:10178000C001E39F900DF29F900D112460E67FEF62
:101790000E942B219B01CF0162E070E00E942B216F
:1017A000260F371FD5012D933C93F601808191813F
:1017B0009C01029FC001039F900D129F900D112468
:1017C00060E67FEF0E942B219B01C80162E070E080
:1017D0000E942B21260F371FD50113963C932E9381
:1017E000129715961C921E921497808191810F97E3
:1017F0000CF463C224E030E05CC2CF01880F991F73
:1018000065E070E00E942B219B01D6018D919C9197
:10181000AC01E49FC001E59F900DF49F900D112451
:1018200060E67FEF0E942B21260F371FD5012D93F5
:101830003C93C801880F991F65E070E00E942B213E
:101840009B01F60180819181AC01049FC001059F3D
:10185000900D149F900D112460E67FEF0E942B21C4
:10186000260F371FD50113963C932E93129715968A
:101870001C921E921497808191810F970CF41DC2C7
:1018800085E090E0EF85F8899183808316C2CF01CF
:10189000880F991F8E0F9F1F6AE070E00E942B2116
:1018A0009B01D6018D919C91AC01E49FC001E59F05
:1018B000900DF49F900D112460E67FEF0E942B2184
:1018C000260F371FD5012D933C93C801880F991F10
:1018D000800F911F6AE070E00E942B219B01F601AE
:1018E00080819181AC01049FC001059F900D149FE0
:1018F000900D112460E67FEF0E942B21260F371FE9
:10190000D50113963C932E93129715961C921E9216
:101910001497808191810F970CF4CFC126E030E0BD
:10192000C8C1D6018D919C919C01E29FC001E39FAB
:10193000900DF29F900D112460E67FEF0E942B2105
:101940009B01CF0165E070E00E942B21260F371F1D
:10195000D5012D933C93F601808191819C01029FDA
:10196000C001039F900D129F900D112460E67FEF40
:101970000E942B219B01C80165E070E00E942B2191
:10198000260F371FD50113963C932E931297159669
:101990001C921E921497808191810F970CF48DC137
:1019A00027E030E086C1D6018D919C919C01E29F99
:1019B000C001E39F900DF29F900D112460E67FEF30
:1019C0000E942B219B01CF016AE070E00E942B2135
:1019D000260F371FD5012D933C93F601808191810D
:1019E0009C01029FC001039F900D129F900D112436
:1019F00060E67FEF0E942B219B01C8016AE070E046
:101A00000E942B21260F371FD50113963C932E934E
:101A1000129715961C921E921497808191810F97B0
:101A20000CF44BC128E030E044C1D6018D919C916B
:101A30009C01E29FC001E39F900DF29F900D112445
:101A400060E67FEF0E942B21D5016D937C93F60118
:101A5000808191819C01029FC001039F900D129F84
:101A6000900D112460E67FEF0E942B21D501139683
:101A70007C936E93129715961C921E9214978081F8
:101A800091810F970CF419C129E030E012C1D60101
:101A90008D919C919C01E29FC001E39F900DF29F6C
:101AA000900D112460E67FEF0E942B219B01CF0156
:101AB00066EF7FEF0E942B21260F371FD5012D9354
:101AC0003C93F601808191819C01029FC001039F9C
:101AD000900D129F900D112460E67FEF0E942B2144
:101AE0009B01C80166EF7FEF0E942B21260F371F55
:101AF000D50113963C932E93129715961C921E9225
:101B00001497808191810F970CF4D7C02AE030E0C0
:101B1000D0C0D6018D919C919C01E29FC001E39FB2
:101B2000900DF29F900D112460E67FEF0E942B2113
:101B30009B01CF016BEF7FEF0E942B21260F371FF8
:101B4000D5012D933C93F601808191819C01029FE8
:101B5000C001039F900D129F900D112460E67FEF4E
:101B60000E942B219B01C8016BEF7FEF0E942B216C
:101B7000260F371FD50113963C932E931297159677
:101B80001C921E921497808191810F970CF495C03E
:101B90002BE030E08EC0CF01880F991F8E0F9F1F62
:101BA00066EF7FEF0E942B219B01D6018D919C91C6
:101BB000AC01E49FC001E59F900DF49F900D1124AE
:101BC00060E67FEF0E942B21260F371FD5012D9352
:101BD0003C93C801880F991F800F911F66EF7FEF1C
:101BE0000E942B219B01F60180819181AC01049F11
:101BF000C001059F900D149F900D112460E67FEFAA
:101C00000E942B21260F371FD50113963C932E934C
:101C1000129715961C921E921497808191810F97AE
:101C20000CF44BC02CE030E044C0CF01880F991F6A
:101C30006BEF7FEF0E942B219B01D6018D919C9130
:101C4000AC01E49FC001E59F900DF49F900D11241D
:101C500060E67FEF0E942B21260F371FD5012D93C1
:101C60003C93C801880F991F6BEF7FEF0E942B21D7
:101C70009B01F60180819181AC01049FC001059F09
:101C8000900D149F900D112460E67FEF0E942B2190
:101C9000260F371FD50113963C932E931297159656
:101CA0001C921E921497808191810F9734F021E04D
:101CB00030E0EF85F8893183208349895A894C5C6B
:101CC0005F4F5A8B498B8F8598890296988B8F87A7
:101CD000A4E3B0E0AA0EBB1EED85FE853296FE871A
:101CE000ED878754924009F093CBED8DFE8DE2593C
:101CF000FE4F808191818F30910524F4019691836C
:101D0000808302C011821082A2960FB6F894DEBFC3
:101D10000FBECDBFCF91DF911F910F91FF90EF903C
:101D2000DF90CF90BF90AF909F908F907F906F90FB
:101D30005F904F903F902F9008952F923F924F9237
:101D40005F926F927F928F929F92AF92BF92CF924B
:101D5000DF92EF92FF920F931F93DF93CF93CDB754
:101D6000DEB76A970FB6F894DEBF0FBECDBF9E8B6D
:101D70008D8B0E9486028D899E89CC969A8F898F41
:101D80001A821982A98DBA8D14962D903D904D908E
:101D90005C9017978D919D910D90BC91A02D8B8794
:101DA0009C87AD87BE87BC01CD019B01AC010E9421
:101DB00000217B018C01C201B101A20191010E94AD
:101DC0000021E60EF71E081F191FC801B7010E9467
:101DD000E11E0E948B2020E030E040E450E40E94AD
:101DE0007C1D3B014C01E98DFA8DA084B184C28435
:101DF000D384A40193010E941E207B018C01C601A3
:101E0000B501A60195010E9400210E94E11E9B01DF
:101E1000AC01C801B7010E947D1D0E948B207B018F
:101E20008C01C601B5010E94E11E9B01AC01C401F9
:101E3000B3010E94F01D6F83788789879A87C80154
:101E4000B701A80197010E941E203B014C0160E0F0
:101E500070E087E592E4A40193010E947C1D5B0180
:101E60006C01C801B70120E030E040E050EC0E9476
:101E70001E2020E030E048E151E40E941E209B013A
:101E8000AC01C601B5010E94461E0E946E1D6B8307
:101E90007C838D839E83C401B30120E030E040E168
:101EA00053E40E947C1D20E030E844EB52E40E94A1
:101EB0007C1D20E030E044E653EC0E94461E0E9468
:101EC0006E1D5B016C01C201B1010E94E11E7B012C
:101ED0008C016B857C858D859E850E94E11E9B0112
:101EE000AC01C801B7010E94F01D21EE3EE245E6BB
:101EF00052E40E941E20A98DBA8D1C966D937D938D
:101F00008D939C931F976F81788589859A852B8106
:101F10003C814D815E810E947D1D21EE3EE245E6C1
:101F200052E40E941E20E98DFA8D608B718B828BAA
:101F3000938BC601B50121EE3EE245E652E40E94D4
:101F40001E20A98DBA8D54966D937D938D939C938D
:101F50005797E981FA813196FA83E983D496BA8F4B
:101F6000A98F369709F00ECFFD89FF8B8E89888F58
:101F70004D885E88A8E4B0E04A0E5B1EEFE2F2E016
:101F8000FA8FE98F1C8A1B8AD2016D917D918D9108
:101F90009C910E94AE1E7B018C01F20164817581CF
:101FA000868197810E94AE1E5B016C017A8B698BE2
:101FB000D20118966D917D918D919C911B970E94F5
:101FC000AE1E3B014C01788B6F87E98DFA8D6081E5
:101FD00071818B899C890397ECF48F89988DA70177
:101FE0002CD9A98DBA8D6D917C916F5F7F4F44EB99
:101FF00050E0E989FA894E1B5F0B8F89988D1DD9B6
:10200000A98DBA8D6D917C916E5F7F4F8F89988D70
:10201000A3011FC044EB50E04E195F098F89988DD2
:102020000CD9E98DFA8D608171816F5F7F4F8F8947
:10203000988DA50102D9A98DBA8D6D917C916E5FA5
:102040007F4F44EB50E0EF85F8894E1B5F0B8F8983
:10205000988DF3D88B899C8901969C8B8B8BA4E3FC
:10206000B0E04A0E5B1EE98DFA8D3296FA8FE98F49
:10207000069709F089CF8D899E8901D96A960FB696
:10208000F894DEBF0FBECDBFCF91DF911F910F91AE
:10209000FF90EF90DF90CF90BF90AF909F908F9088
:1020A0007F906F905F904F903F902F900895FF9298
:1020B0000F931F93CF93DF93EC018885882309F05A
:1020C00043C0E881F981A081B18114962D913C91A2
:1020D0001597CF01F9011995039764F435C0ED9177
:1020E000FC9111970480F581E02DCD01199503979E
:1020F0000CF47CC0E881F981A081B18116962D9104
:102100003C911797CF01F9011995A881B9810697DC
:1021100031F7ED91FC9111970680F781E02DCD010B
:1021200019958538910581F4A881B981ED91FC91CB
:1021300011970680F781E02DCD01199588879C8144
:10214000891711F0188652C08885882309F44EC07B
:10215000E881F981A081B18114962D913C91159768
:10216000CF01F9011995892B09F447C0FF808885B3
:102170008F1508F442C00D811E810F0D111DA8811D
:10218000B981ED91FC9111970680F781E02DCD0189
:102190001995F8018083F394FF82DACF498720E014
:1021A00030E007C0A20FB31F8C91482749872F5FEB
:1021B0003F4F888590E0AD81BE814985281739075A
:1021C0008CF38F81FD01E80FF11D31978081481755
:1021D00059F44C818A819B81BD0150E00E946E02BE
:1021E00018861F8281E003C018861F8280E0DF917D
:1021F000CF911F910F91FF9008954885242F30E0D3
:102200008F8190E001972817390781F7C7CFEF92A8
:10221000FF920F931F938CD79B01AC012093EA038D
:102220003093EB034093EC035093ED038091EE0366
:102230009091EF03A091F003B091F10379018A012D
:10224000E81AF90A0A0B1B0BD801C7010F97A10561
:10225000B105ECF02093EE033093EF034093F003CD
:102260005093F10380E792E022DF882381F0809190
:102270002D0261E00E94141A80E792E018DF80913D
:102280002D0260E00E94141A8AE792E056DD1F9149
:102290000F91FF90EF9008950F931F938C01842F5F
:1022A000F8017383628344833183208390E00E942A
:1022B0006C01F801858396831F910F910895CF9348
:1022C000DF9380912D0261E0FCD780912D0261E0C7
:1022D0000E94141AC0E0D0E0C830D10529F482E988
:1022E00092E068E070E012C0C131D10529F48DEAB6
:1022F00092E069E070E00AC0CE01880F991F8C0F50
:102300009D1FBE01625E7F4F86589D4F0E94AE1B8F
:102310006FE070E080E090E019D72196C231D105DE
:10232000D9F669E070E07093D5026093D40270939F
:10233000D7026093D60245E050E05093D902409313
:10234000D802A5E5B0E0B093DB02A093DA02E4E6A0
:10235000F0E0F093DD02E093DC021092DF021092D5
:10236000DE0210920903109208038CE090E0909333
:102370000B0380930A0350930D0340930C031092B8
:102380000F0310920E0383E390E090931103809368
:102390001003109213031092120327EF3FEF3093B4
:1023A0003D0320933C0370933F0360933E0350939F
:1023B0004103409340038BEA9FEF90934303809344
:1023C0004203F0934503E0934403109247031092B5
:1023D000460330937103209370033093730320936B
:1023E0007203509375034093740390937703809323
:1023F0007603ECE9FFEFF0937903E0937803109212
:102400007B0310927A031092A5031092A40384EF29
:102410009FEF9093A7038093A6035093A903409343
:10242000A8031092AB031092AA038DEC9FEF909338
:10243000AD038093AC031092AF031092AE03709380
:10244000D9036093D8033093DB032093DA035093CE
:10245000DD034093DC03B093DF03A093DE03F0932E
:10246000E103E093E0031092E3031092E20382E1C0
:1024700096E068E172E003D668EE73E080E090E0F9
:1024800065D682E196E040E855E260E070E05FD218
:1024900084E396E040E052EC61E070E058D280E7DF
:1024A00092E068E572E048E124E336E0F5DE8AE791
:1024B00092E043DC64EF71E080E090E047D68091E9
:1024C0002D0260E0B1D7DF91CF91089508951F925A
:1024D0000F920FB60F920BB60F9211242F933F93CA
:1024E0004F938F939F93EF93FF938091C00082FD52
:1024F0001DC04091C60020913204309133042F5FFB
:102500003F4F2F7330708091340490913504281719
:10251000390771F0E0913204F0913304EE50FC4F32
:102520004083309333042093320402C08091C6006C
:10253000FF91EF919F918F914F913F912F910F902C
:102540000BBE0F900FBE0F901F90189508951F920D
:102550000F920FB60F920BB60F9211242F933F9349
:102560004F938F939F93EF93FF938091C80082FDC9
:102570001DC04091CE002091BA043091BB042F5F62
:102580003F4F2F7330708091BC049091BD04281789
:10259000390771F0E091BA04F091BB04E658FB4FA3
:1025A00040833093BB042093BA0402C08091CE00D4
:1025B000FF91EF919F918F914F913F912F910F90AC
:1025C0000BBE0F900FBE0F901F90189508951F928D
:1025D0000F920FB60F920BB60F9211242F933F93C9
:1025E0004F938F939F93EF93FF938091D00082FD41
:1025F0001DC04091D60020914205309143052F5FC8
:102600003F4F2F73307080914405909145052817F6
:10261000390771F0E0914205F0914305EE5FFA4F02
:102620004083309343052093420502C08091D60039
:10263000FF91EF919F918F914F913F912F910F902B
:102640000BBE0F900FBE0F901F90189508951F920C
:102650000F920FB60F920BB60F9211242F933F9348
:102660004F938F939F93EF93FF938091300182FD5F
:102670001DC0409136012091CA053091CB052F5FD6
:102680003F4F2F7330708091CC059091CD05281766
:10269000390771F0E091CA05F091CB05E657FA4F82
:1026A00040833093CB052093CA0502C08091360148
:1026B000FF91EF919F918F914F913F912F910F90AB
:1026C0000BBE0F900FBE0F901F901895E0911E0645
:1026D000F0911F06E05CFF4F819191912081318143
:1026E000821B930B8F739070892B09F0EFDEE091C2
:1026F0004006F0914106E05CFF4F8191919120816D
:102700003181821B930B8F739070892B09F01EDF30
:10271000E0916206F0916306E05CFF4F8191919138
:1027200020813181821B930B8F739070892B09F06C
:102730004DDFE0918406F0918506E05CFF4F8191CA
:10274000919120813181821B930B8F739070892B23
:1027500009F07CCF08951F920F920FB60F920BB61F
:102760000F9211242F933F938F939F93EF93FF9397
:1027700020917604309177048091780490917904C7
:102780002817390731F48091C1008F7D8093C100F3
:1027900014C0E0917804F0917904EA5CFB4F208149
:1027A000809178049091790401968F739070909342
:1027B0007904809378042093C600FF91EF919F9154
:1027C0008F913F912F910F900BBE0F900FBE0F90E6
:1027D0001F9018951F920F920FB60F920BB60F9283
:1027E00011242F933F938F939F93EF93FF93209107
:1027F000FE043091FF048091000590910105281797
:10280000390731F48091C9008F7D8093C90014C0CD
:10281000E0910005F0910105E254FB4F2081809189
:1028200000059091010501968F73907090930105BA
:10283000809300052093CE00FF91EF919F918F919F
:102840003F912F910F900BBE0F900FBE0F901F90D6
:1028500018951F920F920FB60F920BB60F9211247C
:102860002F933F938F939F93EF93FF932091860530
:10287000309187058091880590918905281739073F
:1028800031F48091D1008F7D8093D10014C0E0910C
:102890008805F0918905EA5BFA4F208180918805CF
:1028A0009091890501968F7390709093890580931C
:1028B00088052093D600FF91EF919F918F913F91D2
:1028C0002F910F900BBE0F900FBE0F901F90189579
:1028D0001F920F920FB60F920BB60F9211242F93E7
:1028E0003F938F939F93EF93FF9320910E06309128
:1028F0000F0680911006909111062817390731F4C0
:10290000809131018F7D8093310114C0E0911006D8
:10291000F0911106E253FA4F2081809110069091B8
:10292000110601968F739070909311068093100694
:1029300020933601FF91EF919F918F913F912F91BD
:102940000F900BBE0F900FBE0F901F901895AF9277
:10295000BF92DF92EF92FF920F931F93CF93DF937B
:10296000EC017A018B01DD24403081EE580780E0D4
:10297000680780E0780711F0DD24D39491E0A92E58
:10298000B12CEC89FD89DD2069F0C50108A002C0E9
:10299000880F991F0A94E2F7808360E079E08DE365
:1029A00090E005C0108260E874E88EE190E0A80134
:1029B00097010E943E2121503040404050405695A2
:1029C00047953795279580E12030380720F0DD20A6
:1029D00011F0DD24D6CFE889F9893083EA89FB89B3
:1029E000208319A2EE89FF89408121E030E0C901EE
:1029F0000C8C02C0880F991F0A94E2F7482B408381
:102A0000EE89FF894081C9010D8C02C0880F991F92
:102A10000A94E2F7482B4083EE89FF894081C9017F
:102A20000E8C02C0880F991F0A94E2F7482B40834E
:102A3000EE89FF8980810F8C02C0220F331F0A9418
:102A4000E2F7209528232083DF91CF911F910F91EA
:102A5000FF90EF90DF90BF90AF900895DC011C963F
:102A6000ED91FC911D97E05CFF4F219131918081A8
:102A70009181281B390B2F733070C9010895DC0137
:102A80001C96ED91FC911D97E05CFF4F20813181F8
:102A9000E054F040DF01AE5BBF4F8D919C911197E8
:102AA0002817390719F42FEF3FEF07C08D919C913C
:102AB000E80FF91F8081282F30E0C9010895DC015B
:102AC0001C96ED91FC911D97E05CFF4F20813181B8
:102AD000E054F040DF01AE5BBF4F8D919C911197A8
:102AE0002817390719F42FEF3FEF10C08D919C91F3
:102AF0001197E80FF91F20818D919C9111970196F4
:102B00008F73907011969C938E9330E0C901089555
:102B1000DC0191968C919197882339F05496ED9130
:102B2000FC915597808186FFF9CF91961C9208956C
:102B3000CF93DF93EC01EE85FF85E05CFF4F2081B2
:102B40003181E054F0402F5F3F4F2F733070DF0131
:102B5000AE5BBF4F8D919C91119728173907D1F328
:102B6000E05CFF4F80819181E054F040E80FF91F55
:102B70006083EE85FF85E05CFF4F31832083EE8923
:102B8000FF89208181E090E00F8C02C0880F991F9F
:102B90000A94E2F7282B208381E089A3EC89FD8940
:102BA00080818064808381E090E0DF91CF910895FF
:102BB0001F93109215061092140628EE33E040E0A1
:102BC00050E0209316063093170640931806509352
:102BD00019066BE472E0709313066093120682EF9D
:102BE00093E090931F0680931E0686E394E09093F3
:102BF00021068093200685EC90E090932306809335
:102C0000220684EC90E0909325068093240680ECC5
:102C100090E0909327068093260681EC90E09093B5
:102C200029068093280682EC90E090932B068093EF
:102C30002A0686EC90E090932D0680932C0614E0F3
:102C400010932E06B3E0B0932F06A7E0A0933006B2
:102C5000F5E0F0933106E1E0E0933206109237069A
:102C600010923606209338063093390640933A0680
:102C700050933B0670933506609334068AE794E0E0
:102C800090934106809340068EEB94E09093430628
:102C9000809342068DEC90E0909345068093440625
:102CA0008CEC90E0909347068093460688EC90E089
:102CB000909349068093480689EC90E090934B06E8
:102CC00080934A068AEC90E090934D0680934C06E0
:102CD0008EEC90E090934F0680934E061093500632
:102CE000B0935106A0935206F0935306E093540616
:102CF000109259061092580620935A0630935B069C
:102D000040935C0650935D06709357066093560699
:102D100082E095E0909363068093620686E495E0F6
:102D2000909365068093640685ED90E09093670626
:102D30008093660684ED90E0909369068093680620
:102D400080ED90E090936B0680936A0681ED90E0B1
:102D500090936D0680936C0682ED90E090936F06E1
:102D600080936E0686ED90E09093710680937006D6
:102D700010937206B0937306A0937406F0937506D1
:102D8000E093760610927B0610927A0620937C06DA
:102D900030937D0640937E0650937F0670937906AC
:102DA000609378068AE895E0909385068093840680
:102DB0008EEC95E0909387068093860685E391E0FC
:102DC000909389068093880684E391E090938B0624
:102DD00080938A0680E391E090938D0680938C0621
:102DE00081E391E090938F0680938E0682E391E0D9
:102DF000909391068093900686E391E090939306DA
:102E00008093920610939406B0939506A09396062D
:102E1000F0939706E09398061F910895CF93DF9360
:102E2000EED14DDAC6E6D3E1F2D92097E9F34EDCD4
:102E3000FBCFCF92DF92EF92FF920F931F93CF932E
:102E4000DF937C016B018A01C0E0D0E00FC0D601A6
:102E50006D916D01D701ED91FC910190F081E02D14
:102E6000C7011995C80FD91F015010400115110550
:102E700071F7CE01DF91CF911F910F91FF90EF90ED
:102E8000DF90CF900895EF92FF920F931F938C01E4
:102E9000DC01ED91FC910190F081E02D6DE0199540
:102EA0007C01D801ED91FC910190F081E02DC801E9
:102EB0006AE019959C012E0D3F1DC9011F910F91CC
:102EC000FF90EF900895CF93DF93EC0161157105AA
:102ED00019F420E030E00FC0DB010D900020E9F78D
:102EE0001197A61BB70BE881F9810280F381E02DD1
:102EF000AD0119959C01C901DF91CF9108954F92C1
:102F00005F927F928F929F92AF92BF92CF92DF9209
:102F1000EF92FF920F931F93DF93CF93CDB7DEB75E
:102F2000A1970FB6F894DEBF0FBECDBF2C01742E53
:102F3000CB01223008F42AE019A231E2C32ED12CB1
:102F4000CC0EDD1E822E9924AA24BB24672D752F5A
:102F5000A50194010E943E2179018A01C801B701AF
:102F6000A50194010E940021472D461B0894C10829
:102F7000D1084A3014F4405D01C0495CF601408339
:102F8000E114F1040105110521F07E2C5F2DC8012B
:102F9000DDCFC201B60197DFA1960FB6F894DEBF70
:102FA0000FBECDBFCF91DF911F910F91FF90EF909A
:102FB000DF90CF90BF90AF909F908F907F905F9069
:102FC0004F900895CF92DF92EF92FF920F931F934D
:102FD000CF93DF93EC016A017B012115310541F4A8
:102FE000E881F9810190F081E02D642F19951DC0D1
:102FF0002A303105C9F477FF16C0E881F9810190C4
:10300000F081E02D6DE219958C0144275527BA0116
:103010004C195D096E097F09CE012AE070DF980125
:10302000280F391F03C02AE06ADF9C01C901DF9124
:10303000CF911F910F91FF90EF90DF90CF90089567
:10304000CF92DF92EF92FF920F931F936C017B015F
:103050009A010027F7FC0095102FB801A701B2DFF5
:103060008C01C60110DF080F191FC8011F910F91B5
:10307000FF90EF90DF90CF90089525CF0895EF92C5
:10308000FF920F931F937C011EDF8C01C701FBDEB3
:10309000080F191FC8011F910F91FF90EF9008951D
:1030A0001F920F920FB60F9211242F933F938F937D
:1030B0009F93AF93BF9380919E0690919F06A0919E
:1030C000A006B091A1063091A2060196A11DB11DE6
:1030D000232F2D5F2D3720F02D570196A11DB11DF7
:1030E0002093A20680939E0690939F06A093A0062D
:1030F000B093A10680919A0690919B06A0919C06A0
:10310000B0919D060196A11DB11D80939A069093E2
:103110009B06A0939C06B0939D06BF91AF919F9193
:103120008F913F912F910F900FBE0F901F90189588
:103130008FB7F89420919E0630919F064091A0068B
:103140005091A1068FBFB901CA0108959B01AC013E
:103150007FB7F89480919A0690919B06A0919C0667
:10316000B0919D0666B5A89B05C06F3F19F001960A
:10317000A11DB11D7FBFBA2FA92F982F8827860FB9
:10318000911DA11DB11D62E0880F991FAA1FBB1FD1
:103190006A95D1F7BC012DC0FFB7F89480919A06CB
:1031A00090919B06A0919C06B0919D06E6B5A89BC8
:1031B00005C0EF3F19F00196A11DB11DFFBFBA2F49
:1031C000A92F982F88278E0F911DA11DB11DE2E018
:1031D000880F991FAA1FBB1FEA95D1F7861B970B73
:1031E000885E9340C8F221503040404050406851C2
:1031F0007C4F211531054105510571F608957894EC
:1032000084B5826084BD84B5816084BD85B58260EB
:1032100085BD85B5816085BDEEE6F0E08081816089
:103220008083E1E8F0E01082808182608083808189
:1032300081608083E0E8F0E0808181608083E1EB61
:10324000F0E0808184608083E0EBF0E08081816049
:103250008083E1E9F0E08081826080838081816009
:103260008083E0E9F0E0808181608083E1EAF0E042
:10327000808182608083808181608083E0EAF0E0E9
:10328000808181608083E1E2F1E0808182608083DF
:10329000808181608083E0E2F1E0808181608083D1
:1032A000EAE7F0E0808184608083808182608083AF
:1032B0008081816080838081806880831092C100DA
:1032C0000895CF93DF93482F50E0CA0185519E4F58
:1032D000FC0134914B555E4FFA018491882369F1CA
:1032E00090E0880F991FFC01E95AFE4FA591B49117
:1032F000FC01EF58FE4FC591D491662351F42FB7CE
:10330000F8948C91932F909589238C9388818923AD
:103310000BC0623061F42FB7F8948C91932F909585
:1033200089238C938881832B88832FBF06C09FB706
:10333000F8948C91832B8C939FBFDF91CF9108954C
:10334000893009F449C08A30A0F4843051F18530C5
:1033500040F4823079F1833000F5813009F063C0A8
:1033600026C0873079F1883098F5863009F05BC047
:1033700025C08D3009F442C08E3028F48B30B1F175
:103380008C30C0F52DC0803109F442C0813109F480
:1033900045C08F3009F047C037C0809180008F77DB
:1033A00003C0809180008F7D80938000089584B554
:1033B0008F7702C084B58F7D84BD08958091B00061
:1033C0008F7703C08091B0008F7D8093B000089507
:1033D000809190008F7707C0809190008F7D03C00F
:1033E00080919000877F8093900008958091A00045
:1033F0008F7707C08091A0008F7D03C08091A000CF
:10340000877F8093A0000895809120018F7703C06B
:10341000809120018F7D809320010895809120016B
:10342000877F809320010895FF920F931F93F62EBC
:10343000482F50E0CA018F5C9D4FFC012491CA01C6
:1034400085519E4FFC0114914B555E4FFA0104913A
:103450000023C1F0222311F0822F72DFE02FF0E071
:10346000EE0FFF1FEF58FE4FA591B4919FB7F89450
:10347000FF2021F48C911095812302C08C91812B27
:103480008C939FBF1F910F91FF900895FC01809135
:10349000A306803390F480838F5F8093A3068150CE
:1034A00090E0FC01EE0FFF1FE80FF91FEC55F94FFC
:1034B00088EB9BE09283818308958FEF808308954A
:1034C000FC0120812033B8F58181992787FD9095F3
:1034D00048E850E0481B590B440F551F440F551F37
:1034E0006417750784F08281992787FD909548E5D8
:1034F00052E0481B590B440F551F440F551F6417CA
:1035000075070CF4AB0142505040CA01AA2797FD41
:10351000A095BA2F880F991FAA1FBB1F4FB7F89409
:1035200030E0F901EE0FFF1FE20FF31FEC55F94FEA
:10353000928381834FBF0895AF92BF92CF92DF9263
:10354000EF92FF920F931F93CF93DF93EC019B01B8
:1035500082E0603278070CF047C077FF03C020E0BC
:1035600030E005C0653B710514F024EB30E000D07D
:103570000F92B901882777FD8095982F29813327ED
:1035800027FD3095E8E8AE2EB12CA21AB30AAA0C9A
:10359000BB1CAA0CBB1CCC24B7FCC094DC2CEA815D
:1035A000FF27E7FDF09528E532E02E1B3F0B220FA9
:1035B000331F220F331F442737FD4095542FEDB79B
:1035C000FEB7218332834383548320E030E040E020
:1035D00050E004EBE02EF12C012D112D38D29B018F
:1035E0000F900F900F900F90CE01B90169DFDF911E
:1035F000CF911F910F91FF90EF90DF90CF90BF90F0
:10360000AF900895CF92DF92EF92FF921F93CF93E6
:10361000DF93EC01162F7A0169018881803308F06D
:103620008FC0862F61E04DDE888190E0FC01EE0FB7
:10363000FF1FE80FF91FEC55F94F1F738081807C45
:10364000812B808380E292E08E199F0964E070E014
:1036500002D6698380E699E08C199D0964E070E0E8
:10366000FAD56A83A8818A2F6CE0E9D5682F70E0CB
:10367000AB01440F551F460F571F440F551F440FF2
:10368000551F20E030E0C901840F951FFC01EE0FAB
:10369000FF1FE80FF91FEC55F94F808186FD44C0EC
:1036A0002F5F3F4F2C30310571F753C010928000CF
:1036B00082E0809381001092850010928400B19A7C
:1036C00080916F00826080936F002EC06230710520
:1036D00069F41092900082E080939100109295001E
:1036E0001092940088BB809371001EC063307105F6
:1036F00069F41092A00082E08093A1001092A500CE
:103700001092A40089BB809372000EC0672B61F4F5
:103710001092200182E080932101109225011092E5
:1037200024018ABB809373008A2F90E0FC01EE0F86
:10373000FF1FE80FF91FEC55F94F808180648083EB
:103740008881DF91CF911F91FF90EF90DF90CF9014
:1037500008956130710509F0B9CFA8CF40E252E079
:1037600020E639E04FCFEF92FF920F931F93CF9354
:10377000DF938B017A01EC01DC01AC5CB84F8C91DA
:1037800087FF04C0FB011182108236C0AE01440FD6
:10379000551F4C0F5D1F440F551F440F551F2C9193
:1037A000332727FD3095240F351F8091A30690E025
:1037B000281739070CF58C91992787FD9095840F70
:1037C000951FFC01EE0FFF1FE80FF91FEC55F94F95
:1037D000808186FF11C08C91992787FD9095840F79
:1037E000951FFC01EE0FFF1FE80FF91FEC55F94F75
:1037F00080818F7360E018DEDE01AC5CB84F8C9185
:103800008F5F8C93AE01440F551F4C0F5D1F440F0B
:10381000551F440F551F2C91332727FD3095240F3A
:10382000351F8091A30690E0281739070CF04CC093
:103830008C918C300CF048C0F801208131818C9142
:10384000992787FD9095840F951FFC01EE0FFF1FB0
:10385000E80FF91FEC55F94F81819281280F391F2C
:10386000F701318320838C91992787FD9095840FF0
:10387000951FFC01EE0FFF1FE80FF91FEC55F94FE4
:10388000808186FF29C08C91992787FD9095840FB0
:10389000951FFC01EE0FFF1FE80FF91FEC55F94FC4
:1038A00080818F7361E0C0DD17C080E49CE904C0B3
:1038B000F801808191810496F70191838083CC5C2B
:1038C000D84F8FEF888308C0F801808191810496DA
:1038D00080549C4950F3ECCFDF91CF911F910F9111
:1038E000FF90EF9008951F920F920FB60F920BB6B4
:1038F0000F9211242F933F934F935F936F937F9376
:103900008F939F93AF93BF93EF93FF9380E090E0EB
:1039100064E271E048E251E026DFFF91EF91BF9150
:10392000AF919F918F917F916F915F914F913F9157
:103930002F910F900BBE0F900FBE0F901F901895F8
:103940001F920F920FB60F920BB60F9211242F9366
:103950003F934F935F936F937F938F939F93AF9317
:10396000BF93EF93FF9383E090E064EA70E048EA4E
:1039700050E0F9DEFF91EF91BF91AF919F918F9150
:103980007F916F915F914F913F912F910F900BBE5F
:103990000F900FBE0F901F9018951F920F920FB6A9
:1039A0000F920BB60F9211242F933F934F935F9377
:1039B0006F937F938F939F93AF93BF93EF93FF93F7
:1039C00082E090E064E970E048E950E0CCDEFF91ED
:1039D000EF91BF91AF919F918F917F916F915F9187
:1039E0004F913F912F910F900BBE0F900FBE0F90F4
:1039F0001F9018951F920F920FB60F920BB60F9251
:103A000011242F933F934F935F936F937F938F93E3
:103A10009F93AF93BF93EF93FF9381E090E064E8AF
:103A200070E048E850E09FDEFF91EF91BF91AF91C9
:103A30009F918F917F916F915F914F913F912F91C6
:103A40000F900BBE0F900FBE0F901F9018952F92E6
:103A50003F924F925F926F927F928F929F92AF921E
:103A6000BF92CF92DF92EF92FF920F931F93DF935B
:103A7000CF93CDB7DEB73B014C0119012A016E8906
:103A80007F89888D998D6A197B098C099D09621A35
:103A9000730A840A950AA4019301B2D3E218F308C9
:103AA00004091509A80197010BD42A0D3B1D4C1DD3
:103AB0005D1DB901CA01CF91DF911F910F91FF9058
:103AC000EF90DF90CF90BF90AF909F908F907F90BE
:103AD0006F905F904F903F902F9008959F939F77A6
:103AE000ABD10F9000203AF49058A2EA2AED3FE0C3
:103AF00049E450E413D04CC25058BB27AA270ED03B
:103B000047C207D230F00CD220F031F49F3F11F4BD
:103B10001EF4D7C10EF4E095E7FBCDC1E92F5AD2D0
:103B200080F3BA17620773078407950718F071F4DA
:103B30009EF572C20EF4E0950B2EBA2FA02D0B014C
:103B4000B90190010C01CA01A0011124FF27591BE2
:103B500099F0593F50F4503E68F11A16F040A22FE8
:103B6000232F342F4427585FF3CF46953795279559
:103B7000A795F0405395C9F77EF41F16BA0B620B58
:103B8000730B840BBAF09150A1F0FF0FBB1F661F9F
:103B9000771F881FC2F70EC0BA0F621F731F841FE2
:103BA00048F4879577956795B795F7959E3F08F008
:103BB000B3CF9395880F08F09927EE0F97958795C7
:103BC0000895A7D158F080E891E009F49EEFA8D1BC
:103BD00028F040E851E059F45EEF09C072C11CC200
:103BE000E92FE078F7D168F3092E052AC1F32617EB
:103BF00037074807590738F00E2E07F8E02569F017
:103C0000E025E0640AC0EF6307F8009407FADB01DF
:103C1000B9019D01DC01CA01AD01EF9346D0B8D1D5
:103C20000AD05F91552331F02BED3FE049E450FD80
:103C300049EC63CF0895DF93DD27B92FBF7740E8C4
:103C40005FE31616170648075B0710F4D92FEFD16C
:103C50009F938F937F936F93A8D2E4EEF0E034D1DB
:103C600097D12F913F914F915F91F4D1DD2349F08E
:103C70009058A2EA2AED3FE049EC5FE3D0785D2757
:103C80004DDFDF9185C154D1E39593C10CD080C144
:103C900047D140F03ED130F021F45F3F19F00BC125
:103CA0005111BBC10EC196D198F39923C9F3552385
:103CB000B1F3951B550BBB27AA276217730784071F
:103CC00038F09F5F5F4F220F331F441FAA1FA9F3D5
:103CD00033D00E2E3AF0E0E830D091505040E695C7
:103CE000001CCAF729D0FE2F27D0660F771F881F28
:103CF000BB1F261737074807AB07B0E809F0BB0B17
:103D0000802DBF01FF2793585F4F2AF09E3F51053A
:103D100068F0D1C082C15F3FECF3983EDCF386953A
:103D200077956795B795F7959F5FC9F7880F911DB0
:103D30009695879597F90895E1E0660F771F881F9C
:103D4000BB1F621773078407BA0720F0621B730B4F
:103D5000840BBA0BEE1F88F7E095089504D06894A1
:103D6000B1115BC108953ED188F09F5790F0B92FF3
:103D70009927B751A0F0D1F0660F771F881F991FC0
:103D80001AF0BA95C9F712C0B13081F045D1B1E04F
:103D9000089542C1672F782F8827B85F39F0B93F5F
:103DA000CCF3869577956795B395D9F73EF49095C2
:103DB0008095709561957F4F8F4F9F4F0895E89440
:103DC00009C097FB3EF490958095709561957F4F63
:103DD0008F4F9F4F9923A9F0F92F96E9BB27939511
:103DE000F695879577956795B795F111F8CFFAF421
:103DF000BB0F11F460FF1BC06F5F7F4F8F4F9F4F52
:103E000016C0882311F096E911C0772321F09EE8AF
:103E1000872F762F05C0662371F096E8862F70E015
:103E200060E02AF09A95660F771F881FDAF7880FEF
:103E30009695879597F90895DF93CF931F930F93E6
:103E40008B01EC01E1E1F1E03FD0A2D09801AE019D
:103E50008B01EC0160E070E080E89FE34DDE5BD118
:103E60009801AE010F911F91CF91DF91F3C0990F8F
:103E70000008550FAA0BE0E8FEEF16161706E80734
:103E8000F907C0F012161306E407F50798F0621B55
:103E9000730B840B950B39F40A2661F0232B242B2A
:103EA000252B21F408950A2609F4A140A6958FEF49
:103EB000811D811D089597F99F6780E870E060E09B
:103EC00008959FEF80EC0895DF93CF931F930F9396
:103ED000FF92EF92DF927B018C01689405C0DA2E8D
:103EE000EF01B8D0FE01E894A59125913591459157
:103EF0005591AEF3EF0112DEFE019701A801DA94AD
:103F000079F7DF90EF90FF900F911F91CF91DF91A4
:103F1000089500240A94161617061806090608952F
:103F200000240A9412161306140605060895C9CF34
:103F300059D0E8F3E894EFEFBB273FE048EC5FE7A8
:103F40006B3D73078407950708F1FF279F57B25A07
:103F50006A4D7F40894CF04032F4BE556542704F47
:103F60008643FF4F0894EE1F915030F0BB0F661F41
:103F7000771F881FFF1FEBCF9EE7882332F0BB0F10
:103F8000661F771F881F9A95C1F79395E09510C11A
:103F9000092E0394000C11F4882352F0BB0F40F457
:103FA000BF2B11F460FF04C06F5F7F4F8F4F9F4F97
:103FB0000895EF93E0FF06C0A2EA2AED3FE049EC46
:103FC0005FEBACDDE5DF0F90039401FC9058E9E373
:103FD000F1E005C157FD9058440F551F59F05F3F60
:103FE00071F04795880F97FB991F61F09F3F79F01B
:103FF00087950895121613061406551FF2CF46959D
:10400000F1DF08C0161617061806991FF1CF86951E
:104010007105610508940895E894BB276627772702
:10402000CB0197F9089523DF08F48FEF08959B01E2
:10403000AC0160E070E080E89FE328CE0BD0A8CF11
:1040400068DF28F06DDF18F0952309F034CF39CF01
:104050001124E3CFBFDFA0F3959FD1F3950F50E07C
:10406000551F629FF001729FBB27F00DB11D639F2A
:10407000AA27F00DB11DAA1F649F6627B00DA11DD0
:10408000661F829F2227B00DA11D621F739FB00D76
:10409000A11D621F839FA00D611D221F749F3327E6
:1040A000A00D611D231F849F600D211D822F762F7F
:1040B0006A2F11249F5750408AF0E1F088234AF07C
:1040C000EE0FFF1FBB1F661F771F881F91505040C8
:1040D000A9F79E3F510570F0EECE9FCF5F3FECF306
:1040E000983EDCF3869577956795B795F795E795B4
:1040F0009F5FC1F7FE2B880F911D9695879597F9C5
:1041000008959F9315DF0F9007FCEE5F52CF11F4D7
:104110000EF4D7CE4DC066DFD0F39923D9F3CEF39A
:104120009F57550B87FF54D056959795B0E020F4D4
:10413000660F771F881FBB1F1F930F9300249001EA
:10414000A0018001F001A0E80E0F1F1F0A1E511DE3
:10415000601B710B8009B50B48F4600F711F801D47
:10416000B51F0E1B1F0B0A0A510907C02E0F3F1F58
:104170004A1F0E0F1F1F0A1E511D660F771F881F33
:10418000BB1FA695F795E795F8F6061717070806DB
:104190005B07211D311D411D0F911F91B901842F16
:1041A0009158880F9695879508959B01AC0146CF4D
:1041B0009F3F49F0915028F4869577956795B7957C
:1041C0009F5F80389F4F880F9695879597F9089540
:1041D00091505040660F771F881FD2F708959F9324
:1041E0008F937F936F93FF93EF939B01AC0126DF37
:1041F000EF91FF9169DE2F913F914F915F911ECF1B
:10420000629FD001739FF001829FE00DF11D649FBA
:10421000E00DF11D929FF00D839FF00D749FF00D46
:10422000659FF00D9927729FB00DE11DF91F639FE7
:10423000B00DE11DF91FBD01CF0111240895991B97
:1042400079E004C0991F961708F0961B881F7A958D
:10425000C9F78095089597FB092E07260AD077FDA8
:1042600004D049D006D000201AF4709561957F4F94
:104270000895F6F7909581959F4F0895A1E21A2E23
:10428000AA1BBB1BFD010DC0AA1FBB1FEE1FFF1FFA
:10429000A217B307E407F50720F0A21BB30BE40B4A
:1042A000F50B661F771F881F991F1A9469F7609591
:1042B0007095809590959B01AC01BD01CF0108954B
:1042C00097FB092E05260ED057FD04D0D7DF0AD064
:1042D000001C38F450954095309521953F4F4F4F35
:1042E0005F4F0895F6F790958095709561957F4F93
:1042F0008F4F9F4F0895AA1BBB1B51E107C0AA1FF8
:10430000BB1FA617B70710F0A61BB70B881F991F76
:104310005A95A9F780959095BC01CD010895EE0FAF
:0E432000FF1F0590F491E02D1994F894FFCF43
:10432E002A2A2A5449434B2A2A2A3A2000647572B3
:10433E006174696F6E3A2000416961636F73204842
:10434E00657861706F640020003C0700000D00006E
:10435E00000300060009000C000F00010003000519
:10436E0000070009000B0000000000981519172E19
:08437E00155F153F15881500BD
:00000001FF
