:100000003DC1000068C1000066C1000064C100007D
:1000100062C1000060C100005EC100005CC1000060
:100020005AC1000058C1000056C1000054C1000070
:1000300052C1000050C100004EC100004CC1000080
:100040004AC100000C94CD1A46C1000044C1000012
:1000500042C1000040C100003EC100000C942316C4
:100060003AC100000C94FA100C943E1234C1000006
:1000700032C1000030C100002EC100002CC10000C0
:100080000C94A01A28C1000026C1000024C1000061
:100090000C943A110C947D121EC100001CC100008A
:1000A0001AC1000018C100000C94731A14C100009A
:1000B00012C1000010C100000EC100000C94461ACD
:1000C0000AC1000008C1000006C100000C947A11AA
:1000D0000C94BC1200C100000C94BA110C94FB12D9
:1000E000FAC00000084AD73B3BCE016E84BCBFFD7E
:1000F000C12F3D6C74319ABD56833DDA3D00C77FF8
:1001000011BED9E4BB4C3E916BAAAABE0000008090
:100110003F072C7AA5BA6CC590DA3B9365FC8BBC83
:1001200053F810FD3C5692834DBD879D3AB63DCBAA
:10013000C9BF5BBE73DA0FC93F05A84CCDB2D44E20
:10014000B93836A9020C50B9918688083CA6AAAAEB
:100150002ABE000000803F00002100240027002A62
:10016000002D003000330001010000040107010AE6
:100170000100002200250028002B002E0031003451
:100180000002010000050108010B0100002000230E
:1001900000260029002C002F00320000010000037F
:1001A00001060109010505050507050808080802FB
:1001B0000202020A0A080804040404010101010100
:1001C0000101010303030303030303040707070CEF
:1001D0000C0C0C0C0C0C0C020202020606060606A5
:1001E0000606060B0B0B0B0B0B0B0B010210202052
:1001F000080810204010204080020102010804027B
:1002000001010204081020408080402010080402F0
:100210000180040201804020100804020108040249
:10022000010102040810204080010204081020404F
:10023000800000090A02080B0C0D070603040100E8
:1002400000000000000000000000000000000000AE
:100250000000000000000000000000000011100F6E
:10026000000000000000000000000000000000008E
:10027000000000000000000077026B1411241FBE74
:10028000CFEFD1E2DEBFCDBF00E00CBF12E0A0E0B7
:10029000B2E0E4EDFEE300E00BBF02C007900D9278
:1002A000A034B107D9F71BBE17E0A0E4B2E001C04B
:1002B0001D92A432B107E1F712E0CCE7D2E004C00E
:1002C0002297FE010E94641FC837D107C9F70E9418
:1002D000A1150C94681F94CECF93DF93BC0182309C
:1002E000910510F462E070E0A0912207B09123071D
:1002F000ED01E0E0F0E040E050E021C0888199812C
:100300008617970769F48A819B81309719F0938348
:10031000828304C09093230780932207FE0134C098
:100320006817790738F44115510519F084179507B6
:1003300008F4AC01FE018A819B819C01E9012097B0
:10034000E9F641155105A9F1CA01861B970B0497DF
:1003500008F4BA01E0E0F0E02AC08D919C91119779
:1003600084179507F9F46417750781F412968D9137
:100370009C911397309719F09383828304C09093D4
:10038000230780932207FD0132964CC0CA01861BC9
:10039000970BFD01E80FF91F6193719302978D93FD
:1003A0009C9340C0FD01828193819C01D9011097EB
:1003B000A1F68091200790912107892B41F480912B
:1003C000110290911202909321078093200740918F
:1003D0001302509114024115510541F44DB75EB717
:1003E00080910F0290911002481B590B2091200719
:1003F00030912107CA01821B930B8617970780F063
:10040000AB014E5F5F4F8417950750F0420F531FAB
:100410005093210740932007F9016193719302C023
:10042000E0E0F0E0CF01DF91CF910895CF93DF932B
:10043000009709F450C0EC0122971B821A82A09108
:100440002207B0912307109709F140E050E0AC1764
:10045000BD0708F1BB83AA83FE0121913191E20F10
:10046000F31FAE17BF0779F48D919C911197280F58
:10047000391F2E5F3F4F3983288312968D919C91AF
:1004800013979B838A834115510571F4D0932307F9
:10049000C093220720C012968D919C911397AD01B5
:1004A000009711F0DC01D3CFFA01D383C2832191ED
:1004B0003191E20FF31FCE17DF0769F4888199812C
:1004C000280F391F2E5F3F4FFA01318320838A8125
:1004D0009B8193838283DF91CF910895FB01DC019F
:1004E00002C001900D9241505040D8F70895CF932B
:1004F000DF93C2E6D2E0CE010E941918239682E073
:10050000C839D807C1F7DF91CF9108952F923F9254
:100510004F925F926F927F928F929F92AF92BF9213
:10052000CF92DF92EF92FF920F931F93DF93CF93BF
:10053000CDB7DEB7C056D0400FB6F894DEBF0FBEC1
:10054000CDBF6C0160914C0270914D0280914E02C2
:1005500090914F0225E33AEF4EE85CEB0E94F11DCB
:100560007B018C01C8010E94541E23966CAF7DAFA5
:100570008EAF9FAF2397B701C8010E94161C6BAFC7
:100580007CAF8DAF9EAF609150027091510280910F
:1005900052029091530225E33AEF4EE85CEB0E9441
:1005A000F11D7B018C01C8010E94541E6FAB78AF16
:1005B00089AF9AAFB701C8010E94161C6BAB7CAB28
:1005C0008DAB9EAB609154027091550280915602A2
:1005D0009091570225E33AEF4EE85CEB0E94F11D43
:1005E0007B018C01C8010E94541E6FA778AB89ABB8
:1005F0009AABB701C8010E94161C6BA77CA78DA7F8
:100600009EA7209146023091470229963FAF2EAF18
:100610002997809148029091490227969FAF8EAF0B
:100620002797A0914A02B0914B022596BFAFAEAF7B
:100630002597F601E65AFF4FFAA7E9A796012A5C2B
:100640003F4F38A72FA31EA21DA2A9A5BAA52D9082
:100650003C9011971296ED91FC911397A196FFAFE4
:10066000EEAFA19714962D913C9115976F963FAFE1
:100670002EAF6F9718966D917C9119976E0F7F1F13
:10068000882777FD8095982F0E94B41C4B015C0150
:100690002BA53CA54DA55EA50E94F11D6B966CAFE8
:1006A0007DAF8EAF9FAF6B97A9A5BAA516966D913A
:1006B0007C911797620D731D882777FD8095982F81
:1006C0000E94B41C2B013C012BA53CA54DA55EA5A9
:1006D0000E94F11D67966CAF7DAF8EAF9FAF67979D
:1006E000E9A5FAA5628573856F962EAD3FAD6F972C
:1006F000620F731F882777FD8095982F0E94B41C86
:1007000063966CAF7DAF8EAF9FAF63972BAD3CAD63
:100710004DAD5EAD0E94F11D2F966CAF7DAF8EAFDB
:100720009FAF2F97C501B4012BA93CA94DA95EA984
:100730000E94F11D2FA538A949A95AA90E94F11DAF
:100740007B018C016B966CAD7DAD8EAD9FAD6B97D3
:1007500023962CAD3DAD4EAD5FAD23970E94F11DAC
:100760002FA938AD49AD5AAD0E94F11D9B01AC01D6
:10077000C801B7010E94501B7B018C0167966CADCC
:100780007DAD8EAD9FAD67972BA93CA94DA95EA904
:100790000E94F11D9B01AC01C801B7010E94501BD2
:1007A0007B018C01C301B2012FA538A949A95AA91F
:1007B0000E94F11D23962CAD3DAD4EAD5FAD23974C
:1007C0000E94F11D2FA938AD49AD5AAD0E94F11D0F
:1007D0009B01AC01C801B7010E944F1B7B018C013A
:1007E0002F966CAD7DAD8EAD9FAD2F972FA938ADF7
:1007F00049AD5AAD0E94F11D9B01AC01C801B70182
:100800000E944F1BA30192010E944F1B7B018C0190
:1008100020E030E040E050E00E94E61D88234CF0EC
:10082000C801B70120E030E040E05FE30E94501BC8
:1008300008C0C801B70120E030E040E05FE30E945B
:100840004F1B0E94811C6D967FAF6EAF6D97C501E7
:10085000B4012BAD3CAD4DAD5EAD0E94F11D2BA59D
:100860003CA54DA55EA50E94F11D7B018C01C30135
:10087000B2012BAD3CAD4DAD5EAD0E94F11D2FA57B
:1008800038A949A95AA90E94F11D9B01AC01C801D0
:10089000B7010E944F1B7B018C0163966CAD7DAD4F
:1008A0008EAD9FAD639723962CAD3DAD4EAD5FAD44
:1008B00023970E94F11D9B01AC01C801B7010E9462
:1008C000501BA50194010E944F1B7B018C0120E06D
:1008D00030E040E050E00E94E61D88234CF0C80163
:1008E000B70120E030E040E05FE30E94501B08C009
:1008F000C801B70120E030E040E05FE30E944F1BF9
:100900000E94811C2B967FAF6EAF2B97C501B4015F
:100910002FA538A949A95AA90E94F11D2FA938ADC0
:1009200049AD5AAD0E94F11D7B018C016B966CADF7
:100930007DAD8EAD9FAD6B972BA93CA94DA95EA94E
:100940000E94F11D23962CAD3DAD4EAD5FAD2397BA
:100950000E94F11D9B01AC01C801B7010E944F1B11
:100960007B018C0167966CAD7DAD8EAD9FAD6797B9
:100970002FA938AD49AD5AAD0E94F11D9B01AC01C4
:10098000C801B7010E94501B7B018C01C301B20159
:100990002BA93CA94DA95EA90E94F11D2FA538A93C
:1009A00049A95AA90E94F11D23962CAD3DAD4EAD2B
:1009B0005FAD23970E94F11D9B01AC01C801B701F7
:1009C0000E94501B7B018C012F966CAD7DAD8EADCE
:1009D0009FAD2F972BA93CA94DA95EA90E94F11D9F
:1009E0009B01AC01C801B7010E94501B63962CAD5E
:1009F0003DAD4EAD5FAD63970E944F1B7B018C01F7
:100A000020E030E040E050E00E94E61D88234CF0FA
:100A1000C801B70120E030E040E05FE30E94501BD6
:100A200008C0C801B70120E030E040E05FE30E9469
:100A30004F1B0E94811CE1E0F0E0EC0FFD1F8DA137
:100A40009EA1E80FF91FAFA1B8A58D919C91280E2A
:100A5000391E29962EAD3FAD2997221A330A6D967D
:100A60008EAD9FAD6D97280E391E31822082EDE04C
:100A7000F0E0EC0FFD1FADA1BEA1EA0FFB1FAFA17F
:100A8000B8A512968D919C911397A1962EAD3FAD6E
:100A9000A197280F391F27968EAD9FAD2797281B4A
:100AA000390B2B96AEADBFAD2B972A0F3B1F318371
:100AB0002083E9E1F0E0EC0FFD1F2DA13EA1E20F44
:100AC000F31FAFA1B8A514968D919C9115976F96C1
:100AD0002EAD3FAD6F97280F391F25968EAD9FAD78
:100AE0002597281B390B260F371F31832083A9A593
:100AF000BAA5D496BAA7A9A7EFA1F8A5F496F8A726
:100B0000EFA32DA13EA12E5F3F4F3EA32DA32C307E
:100B1000310509F09ACD6D857E85882777FD809512
:100B2000982F0E94B41C23EF34E045E35FE30E945A
:100B3000F11D2B013C0169817A81882777FD809521
:100B4000982F0E94B41C4B015C0123EF34E045E375
:100B50005FEB0E94F11D9B01AC01C301B2010E9439
:100B6000501B7B018C0120E030E040E050E00E940F
:100B7000E61D88234CF0C801B70120E030E040E0DA
:100B80005FE30E94501B08C0C801B70120E030E0BD
:100B900040E05FE30E944F1B0E94811CD601DC965F
:100BA0006D937D938D939C93DF97C501B40123EFE3
:100BB00034E045E35FE30E94F11D9B01AC01C301FA
:100BC000B2010E94501B7B018C0120E030E040E02C
:100BD00050E00E94E61D88234CF0C801B70120E0D8
:100BE00030E040E05FE30E94501B08C0C801B7013D
:100BF00020E030E040E05FE30E944F1B0E94811C38
:100C0000E0E4F0E0CE0EDF1ED6016D937D938D9370
:100C10009D936D01898D9A8DAA2797FDA095BA2F76
:100C2000F60180839183A283B3832CEB3FEFC20E46
:100C3000D31E6F857889882777FD8095982F0E942D
:100C4000B41C2B013C016B817C81882777FD80954A
:100C5000982F0E94B41C4B015C01C301B2012EE22B
:100C60003DEB4BE353EB0E94F11DA50194010E9463
:100C70004F1B7B018C0120E030E040E050E00E94FF
:100C8000E61D88234CF0C801B70120E030E040E0C9
:100C90005FE30E94501B08C0C801B70120E030E0AC
:100CA00040E05FE30E944F1B0E94811CA0E7B0E080
:100CB000CA0EDB1EF601608371838283938320E971
:100CC0003FEFC20ED31EC501B4012EE23DEB4BE354
:100CD00053EB0E94F11D9B01AC01C301B2010E94C4
:100CE000501B7B018C0120E030E040E050E00E948E
:100CF000E61D88234CF0C801B70120E030E040E059
:100D00005FE30E94501B08C0C801B70120E030E03B
:100D100040E05FE30E944F1B0E94811CA4E7B0E00B
:100D2000CA0EDB1EF60161937193819391936F015B
:100D30008B8D9C8DAA2797FDA095BA2F80839183D8
:100D4000A283B38328E83FEFC20ED31E69897A8954
:100D5000882777FD8095982F0E94B41C2B013C01B9
:100D60006D817E81882777FD8095982F0E94B41C25
:100D700023EF34E045E35FEB0E94F11D4B015C0182
:100D8000C301B20123EF34E045E35FEB0E94F11DA4
:100D9000A50194010E94501B7B018C0120E030E0F2
:100DA00040E050E00E94E61D88234CF0C801B701E6
:100DB00020E030E040E05FE30E94501B08C0C80123
:100DC000B70120E030E040E05FE30E944F1B0E944B
:100DD000811CA4EAB0E0CA0EDB1EF60160837183B9
:100DE000828393832CE53FEFC20ED31EC301B20171
:100DF00023EF34E045E35FE30E94F11DA501940178
:100E00000E94501B7B018C0120E030E040E050E06C
:100E10000E94E61D88234CF0C801B70120E030E0B5
:100E200040E05FE30E94501B08C0C801B70120E00A
:100E300030E040E05FE30E944F1B0E94811CA8EA63
:100E4000B0E0CA0EDB1EF60161937193819391931A
:100E50006F018D8D9E8DAA2797FDA095BA2F808357
:100E60009183A283B38324E53FEFC20ED31E6B8927
:100E70007C89882777FD8095982F0E94B41C2B01D0
:100E80003C016F817885882777FD8095982F0E9497
:100E9000B41C4B015C01C301B20124EF34E045E313
:100EA0005FEB0E94F11D7B018C01C501B40122EFB3
:100EB00034E045E35FE30E94F11D9B01AC01C801F2
:100EC000B7010E94501B7B018C0120E030E040E024
:100ED00050E00E94E61D88234CF0C801B70120E0D5
:100EE00030E040E05FE30E94501B08C0C801B7013A
:100EF00020E030E040E05FE30E944F1B0E94811C35
:100F0000A8EDB0E0CA0EDB1EF60160837183828318
:100F1000938328E23FEFC20ED31EC301B20122EF3A
:100F200034E045E35FEB0E94F11D7B018C01C501BC
:100F3000B40124EF34E045E35FEB0E94F11D9B0117
:100F4000AC01C801B7010E94501B7B018C0120E05D
:100F500030E040E050E00E94E61D88234CF0C801DC
:100F6000B70120E030E040E05FE30E94501B08C082
:100F7000C801B70120E030E040E05FE30E944F1B72
:100F80000E94811CACEDB0E0CA0EDB1EF60161933D
:100F90007193819391936F018F8D98A1AA2797FDEB
:100FA000A095BA2F80839183A283B38320E23FEF81
:100FB000C20ED31E6D897E89882777FD8095982F74
:100FC0000E94B41C2B013C0169857A85882777FD36
:100FD0008095982F0E94B41C4B015C01C301B201A3
:100FE0002EE23EED4CE452E30E94F11DA501940176
:100FF0000E94501B7B018C0120E030E040E050E07B
:101000000E94E61D88234CF0C801B70120E030E0C3
:1010100040E05FE30E94501B08C0C801B70120E018
:1010200030E040E05FE30E944F1B0E94811CACE077
:10103000B1E0CA0EDB1EF601608371838283938365
:1010400024EF3EEFC20ED31EC501B4012EE23EEDE9
:101050004CE452E30E94F11DA30192010E944F1B38
:101060007B018C0120E030E040E050E00E94E61D72
:1010700088234CF0C801B70120E030E040E05FE396
:101080000E94501B08C0C801B70120E030E040E0DA
:101090005FE30E944F1B0E94811CA0E1B1E0CA0ED9
:1010A000DB1EF60161937193819391936F0189A186
:1010B0009AA1AA2797FDA095BA2F80839183A28336
:1010C000B3832CEE3EEFC20ED31E6F89788D882736
:1010D00077FD8095982F0E94B41C2B013C016B85F5
:1010E0007C85882777FD8095982F0E94B41C4B0142
:1010F0005C01C301B20121EF34E045E35FE30E94EC
:10110000F11D7B018C01C501B40125EF34E045E3FD
:101110005FE30E94F11D9B01AC01C801B7010E9471
:10112000501B7B018C0120E030E040E050E00E9449
:10113000E61D88234CF0C801B70120E030E040E014
:101140005FE30E94501B08C0C801B70120E030E0F7
:1011500040E05FE30E944F1B0E94811CA0E4B1E0CD
:10116000CA0EDB1EF601608371838283938320ECB9
:101170003EEFC20ED31EC301B20125EF34E045E3BA
:101180005FEB0E94F11D7B018C01C501B40121EFD1
:1011900034E045E35FE30E94F11D9B01AC01C8010F
:1011A000B7010E94501B7B018C0120E030E040E041
:1011B00050E00E94E61D88234CF0C801B70120E0F2
:1011C00030E040E05FE30E94501B08C0C801B70157
:1011D00020E030E040E05FE30E944F1B0E94811C52
:1011E000A4E4B1E0CA0EDB1EF60161937193819312
:1011F00091938BA19CA1AA2797FDA095BA2F8083DC
:101200009183A283B383C05ADF4F0FB6F894DEBF39
:101210000FBECDBFCF91DF911F910F91FF90EF9047
:10122000DF90CF90BF90AF909F908F907F906F9006
:101230005F904F903F902F9008959C01443B510543
:1012400054F0CB01880F991F860F971F820F931FB1
:1012500063EB70E012C0CB01880F991F14161506BE
:101260003CF0860F971F820F931F60E070E005C06F
:10127000860F971F820F931FBA010C946F182F923D
:101280003F924F925F926F927F928F929F92AF9216
:10129000BF92CF92DF92EF92FF920F931F93DF9353
:1012A000CF93CDB7DEB7C054D0400FB6F894DEBFB1
:1012B0000FBECDBF9EA38DA329D92DA13EA1245C35
:1012C0003F4F21963FAF2EAF21971A8A198A219658
:1012D000AEADBFAD219714962D903D904D905C9092
:1012E00017972D913D914D915C912B8F3C8F4D8F98
:1012F0005E8FCA01B9010E94D31E7B018C01C2011D
:10130000B101A20191010E94D31EE60EF71E081F33
:10131000191FC801B7010E94B41C0E945E1E20E084
:1013200030E040E450E40E944F1B3B014C01219609
:10133000EEADFFAD2197A084B184C284D384A40113
:1013400093010E94F11D7B018C01C601B501A6012C
:1013500095010E94D31E0E94B41C9B01AC01C801E0
:10136000B7010E94501B0E945E1E7B018C01C601CA
:10137000B5010E94B41C9B01AC01C401B3010E94E1
:10138000C31B6F8B788F898F9A8FC801B701A80113
:1013900097010E94F11D3B014C0160E070E087E580
:1013A00092E4A40193010E944F1B5B016C01C801F0
:1013B000B70120E030E040E050EC0E94F11D20E059
:1013C00030E048E151E40E94F11D9B01AC01C601EF
:1013D000B5010E94191C0E94411B6B8B7C8B8D8B6D
:1013E0009E8BC401B30120E030E040E153E40E9451
:1013F0004F1B20E030E844EB52E40E944F1B20E0FA
:1014000030E044E653EC0E94191C0E94411B5B0132
:101410006C01C201B1010E94B41C7B018C016B8D77
:101420007C8D8D8D9E8D0E94B41C9B01AC01C801EA
:10143000B7010E94C31B21EE3EE245E652E40E9442
:10144000F11D2196AEADBFAD21971C966D937D9396
:101450008D939C931F976F89788D898D9A8D2B8999
:101460003C894D895E890E94501B21EE3EE245E693
:1014700052E40E94F11D2196EEADFFAD2197608BE5
:10148000718B828B938BC601B50121EE3EE245E65E
:1014900052E40E94F11D2196AEADBFAD2197549646
:1014A0006D937D938D939C935797E989FA89319633
:1014B000FA8BE98BD4962196BFAFAEAF21973697C2
:1014C00009F005CFFDA1F9A72EA12AA74DA05EA086
:1014D00048E450E0440E551E87E192E021969FAF0C
:1014E0008EAF21971CA21BA2D2016D917D918D918F
:1014F0009C910E94811C7B018C01F20164817581A9
:10150000868197810E94811C5B016C017AA369A38B
:10151000D20118966D917D918D919C911B970E949F
:10152000811C3B014C0178A36F8F2196EEADFFAD7E
:101530002197608171812BA13CA1233031050CF5ED
:1015400089A59AA5A70179DE2196AEADBFAD2197F9
:101550006D917C916F5F7F4F44EB50E0E9A1FAA160
:101560004E1B5F0B89A59AA568DE2196AEADBFAD77
:1015700021976D917C916E5F7F4F89A59AA5A301FC
:1015800023C044EB50E04E195F0989A59AA555DEAA
:101590002196EEADFFAD2197608171816F5F7F4F26
:1015A00089A59AA5A50149DE2196AEADBFAD2197CB
:1015B0006D917C916E5F7F4F44EB50E0EF8DF8A111
:1015C0004E1B5F0B89A59AA538DE2BA13CA12F5F8E
:1015D0003F4F3CA32BA344E350E0440E551E2196FD
:1015E0008EAD9FAD2197029621969FAF8EAF21972A
:1015F0002630310509F078CF4091400250914102E8
:10160000CA0157FF04C088279927841B950B0697AA
:10161000BCF4809142029091430297FF03C09095E1
:1016200081959F4F069764F4809144029091450202
:1016300097FF03C0909581959F4F06970CF4ADC31B
:1016400024EB30E0429FC001439F900D529F900DCC
:1016500011246FE770E00E94FE1E6BAB7CAB8091A3
:10166000420290914302DC01A29FC001A39F900D12
:10167000B29F900D11246FE770E00E94FE1E1B01C7
:10168000209144023091450288E290E0FC012E9FB7
:10169000C0012F9F900D3E9F900D11246FE770E0C9
:1016A0000E94FE1E6DAB7EAB2DA93EA9B901882715
:1016B00077FD8095982F0E94B41C25E33AEF4EE801
:1016C0005CE30E94F11D7B018C01C8010E94541E45
:1016D00069877A878B879C87B701C8010E94161C8F
:1016E0006D877E878F87988B8DA99EA9880F991FFC
:1016F000880F991F4DA95EA9840F951F8FA398A7E6
:101700008BEF9FEF489FD001499FB00D589FB00DC0
:101710001124BA83A9838BA99CA96BEF7FEF0E9448
:10172000FE1E6BA77CA78BA99CA965E070E00E94B8
:10173000FE1E6DA77EA7C1016BEF7FEF0E94FE1E0C
:101740006FA778ABC10165E070E00E94FE1E69AB37
:101750007AABEDA1FEA1E65AFF4FF887EF8323E2B3
:1017600032E03E832D834DA15EA14A5C5F4F5C83D6
:101770004B838BA99CA9909581959F4F98AF8FAB78
:10178000AA27BB27A219B309BAAFA9AFEDA9FEA931
:10179000F095E195FF4FFCAFEBAF2DA13EA1225993
:1017A0003E4F3EAF2DAFAF81B88518966D917C91BD
:1017B000199712962D913C911397620F731F8827EA
:1017C00077FD8095982F0E94B41C3B014C01EF815E
:1017D000F8856681778120813181620F731F8827A8
:1017E00077FD8095982F0E94B41C5B016C01C401A9
:1017F000B30129853A854B855C850E94F11D7B01EB
:101800008C01C601B5012D853E854F8558890E9402
:10181000F11D9B01AC01C801B7010E94501BA6013C
:1018200095010E944F1B7B018C0120E030E040E0DD
:1018300050E00E94E61D88234CF0C801B70120E06B
:1018400030E040E05FE30E94501B08C0C801B701D0
:1018500020E030E040E05FE30E944F1B0E94811CCB
:101860002B01C401B3012D853E854F8558890E9407
:10187000F11D7B018C01C601B50129853A854B8597
:101880005C850E94F11D9B01AC01C801B7010E945B
:101890004F1BA40193010E944F1B7B018C0120E090
:1018A00030E040E050E00E94E61D88234CF0C80183
:1018B000B70120E030E040E05FE30E94501B08C029
:1018C000C801B70120E030E040E05FE30E944F1B19
:1018D0000E94811C6B012DA93EA9121613061CF053
:1018E00029813A8103C08FA198A59C014BA95CA9CD
:1018F00057FF02C04FA958AD42175307F4F48DA902
:101900009EA9181619061CF029813A8103C08FA1DF
:1019100098A59C01C10137FE02C089AD9AAD82171E
:1019200093075CF48DA99EA997FF02C08BAD9CAD77
:10193000AA24BB24A81AB90A1CC0C10137FE02C0E0
:1019400089AD9AAD4817590754F0ABA9BCA91597B2
:101950001CF48DA59EA50CC08BA59CA509C0B5E067
:101960002B1631041CF08FA598A902C089A99AA949
:101970005C01ED81FE81808191818230910509F4C5
:10198000AAC08330910524F4019709F0E2C108C090
:101990008330910509F420C1049709F0DAC183C1AD
:1019A000EBA8FCA8E40CF51CADADBEAD2D913C91AF
:1019B000442737FD4095542FCA01B901E4E0660F72
:1019C000771F881F991FEA95D1F7621B730B840B51
:1019D000950B9701442737FD4095542F0E94D31E45
:1019E00028E532E040E050E00E94331F89019A016F
:1019F000C70164E070E00E94FE1E709561957F4F04
:101A0000600F711FEB81FC81718360837601E20CB2
:101A1000F31CADADBEAD2D913C91442737FD4095F3
:101A2000542FCA01B90104E0660F771F881F991F60
:101A30000A95D1F7621B730B840B950B9701442712
:101A400037FD4095542F0E94D31E28E532E040E038
:101A500050E00E94331F89019A01C70164E070E0E1
:101A60000E94FE1E709561957F4F600F711FEB8184
:101A7000FC8173836283ADADBEAD2D913C91442753
:101A800037FD4095542FCA01B90114E0660F771F46
:101A9000881F991F1A95D1F7621B730B840B950B46
:101AA0009501442737FD4095542F0E94D31E26E907
:101AB00030E040E050E00E94331FEB81FC81358331
:101AC0002483ADADBEAD8D919C9109970CF441C1BD
:101AD00022E030E0E3C0ADADBEAD2D913C91442796
:101AE00037FD4095542FCA01B901B4E0660F771F46
:101AF000881F991FBA95D1F7621B730B840B950B46
:101B0000EBA9FCA94E0E5F1E9201442737FD4095BC
:101B1000542F0E94D31E28E532E040E050E00E949E
:101B2000331FAB81BC812D933C93EDADFEAD208185
:101B30003181442737FD4095542FCA01B901A4E0F3
:101B4000660F771F881F991FAA95D1F7621B730B29
:101B5000840B950BC20CD31C9601442737FD40958E
:101B6000542F0E94D31E28E532E040E050E00E944E
:101B7000331FAB81BC8113963C932E931297EDAD2E
:101B8000FEAD60817181882777FD8095982F21EFC8
:101B90003FEF4FEF5FEF0E94D31E9501442737FDC3
:101BA0004095542F0E94D31E26E930E040E050E0DB
:101BB0000E94331FA20EB31EAB81BC811596BC924E
:101BC000AE921497EDADFEAD8081918109970CF432
:101BD000C0C0E3E0F0E0B9C0EBA8FCA8E40CF51C41
:101BE000ADADBEAD6D917C91882777FD8095982F26
:101BF00021EF3FEF4FEF5FEF0E94D31E9701442785
:101C000037FD4095542F0E94D31E28E532E040E076
:101C100050E00E94331F89019A01C70164E070E01F
:101C20000E94FE1E600F711FEB81FC817183608337
:101C30007601E20CF31CADADBEAD6D917C918827B1
:101C400077FD8095982F21EF3FEF4FEF5FEF0E94D8
:101C5000D31E9701442737FD4095542F0E94D31E71
:101C600028E532E040E050E00E94331F89019A01EC
:101C7000C70164E070E00E94FE1E600F711FEB81DF
:101C8000FC817383628315821482ADADBEAD8D91EC
:101C90009C9109970CF45DC024E030E0ED81FE8159
:101CA0003183208356C0ADADBEAD6D917C91882748
:101CB00077FD8095982F21EF3FEF4FEF5FEF0E9468
:101CC000D31EEBA9FCA94E0E5F1E9201442737FDDF
:101CD0004095542F0E94D31E28E532E040E050E0AA
:101CE0000E94331FAB81BC812D933C93EDADFEADC3
:101CF00060817181882777FD8095982F21EF3FEFD4
:101D00004FEF5FEF0E94D31EC20CD31C96014427F5
:101D100037FD4095542F0E94D31E28E532E040E065
:101D200050E00E94331FAB81BC8113963C932E93ED
:101D3000129715961C921E921497EDADFEAD808100
:101D40009181099734F0E1E0F0E0AD81BE81ED933F
:101D5000FC932F8138852C5C3F4F38872F834D8132
:101D60005E814E5F5F4F5E834D838B819C81C49605
:101D70009C838B834F52524009F015CDEDA1FEA1FB
:101D8000E259FE4F808191818930910524F40196BA
:101D90009183808302C011821082C05CDF4F0FB636
:101DA000F894DEBF0FBECDBFCF91DF911F910F9191
:101DB000FF90EF90DF90CF90BF90AF909F908F906B
:101DC0007F906F905F904F903F902F900895FF927B
:101DD0000F931F93CF93DF93EC018885882309F03D
:101DE00043C0E881F981A081B18114962D913C9185
:101DF0001597CF01F9011995039764F435C0ED915A
:101E0000FC9111970480F581E02DCD011995039780
:101E10000CF47CC0E881F981A081B18116962D91E6
:101E20003C911797CF01F9011995A881B9810697BF
:101E300031F7ED91FC9111970680F781E02DCD01EE
:101E400019958538910581F4A881B981ED91FC91AE
:101E500011970680F781E02DCD01199588879C8127
:101E6000891711F0188652C08885882309F44EC05E
:101E7000E881F981A081B18114962D913C9115974B
:101E8000CF01F9011995892B09F447C0FF80888596
:101E90008F1508F442C00D811E810F0D111DA88100
:101EA000B981ED91FC9111970680F781E02DCD016C
:101EB0001995F8018083F394FF82DACF498720E0F7
:101EC00030E007C0A20FB31F8C91482749872F5FCE
:101ED0003F4F888590E0AD81BE814985281739073D
:101EE0008CF38F81FD01E80FF11D31978081481738
:101EF00059F44C818A819B81BD0150E00E946E02A1
:101F000018861F8281E003C018861F8280E0DF915F
:101F1000CF911F910F91FF9008954885242F30E0B5
:101F20008F8190E001972817390781F7C7CFEF928B
:101F3000FF920F931F93CFD69B01AC012093D20346
:101F40003093D3034093D4035093D5038091D603A9
:101F50009091D703A091D803B091D90379018A0158
:101F6000E81AF90A0A0B1B0BD801C7010F97A10544
:101F7000B105ECF02093D6033093D7034093D803F8
:101F80005093D90388E592E022DF882381F0809185
:101F9000150261E00E94E71788E592E018DF809162
:101FA000150260E00E94E71782E692E068D91F916F
:101FB0000F91FF90EF9008950F931F938C01842F42
:101FC000F8017383628344833183208390E00E940D
:101FD0006C01F801858396831F910F9108950F93EB
:101FE0001F93CF93DF938091150261E03DD78091DD
:101FF000150261E0ECD7C0E0D0E0C830D10529F48B
:102000008AE792E068E070E012C0C131D10529F49E
:1020100085E992E069E070E00AC0CE01880F991F5F
:102020008C0F9D1FBE01625E7F4F8E599D4F0E9497
:1020300081196FE070E080E090E05BD62196C231BC
:10204000D105D9F6E9E0F0E0F093BD02E093BC02DF
:10205000F093BF02E093BE0265E070E07093C102AE
:102060006093C00205E510E01093C3020093C20222
:10207000ACE3B0E0B093C502A093C4021092C702D3
:102080001092C6021092F1021092F0028CE090E0E1
:102090009093F3028093F2027093F5026093F4023E
:1020A0001092F7021092F60283E390E09093F90207
:1020B0008093F8021092FB021092FA0227EF3FEF92
:1020C0003093250320932403F0932703E093260302
:1020D00070932903609328034BEA5FEF50932B031F
:1020E00040932A0384EC9FEF90932D0380932C035D
:1020F00010922F0310922E0330935903209358030C
:1021000030935B0320935A0370935D0360935C03E9
:1021100050935F0340935E03909361038093600349
:10212000109263031092620310928D0310928C033D
:1021300084EF9FEF90938F0380938E0370939103AE
:102140006093900310929303109292038DEC9FEF93
:1021500090939503809394031092970310929603A3
:10216000F093C103E093C0033093C3032093C203F1
:102170007093C5036093C4031093C7030093C60311
:10218000B093C903A093C8031092CB031092CA0363
:102190008AEF95E060E072E045D568EE73E080E09C
:1021A00090E0A7D58AEF95E040E855E260E070E066
:1021B00061D28CE196E040E052EC61E070E05AD2EE
:1021C00088E592E060E472E048E12CE136E0F4DE7C
:1021D00082E692E054D864EF71E080E090E089D527
:1021E0008091150260E0F3D6DF91CF911F910F919E
:1021F000089508951F920F920FB60F920BB60F928B
:1022000011242F933F934F938F939F93EF93FF93BB
:102210008091C00082FD1DC04091C60020911A042B
:1022200030911B042F5F3F4F2F73307080911C043F
:1022300090911D042817390771F0E0911A04F0916C
:102240001B04E652FC4F408330931B0420931A0476
:1022500002C08091C600FF91EF919F918F914F91A5
:102260003F912F910F900BBE0F900FBE0F901F90BC
:10227000189508951F920F920FB60F920BB60F92FA
:1022800011242F933F934F938F939F93EF93FF933B
:102290008091C80082FD1DC04091CE002091A20413
:1022A0003091A3042F5F3F4F2F7330708091A404AF
:1022B0009091A5042817390771F0E091A204F091DC
:1022C000A304EE59FB4F40833093A3042093A20450
:1022D00002C08091CE00FF91EF919F918F914F911D
:1022E0003F912F910F900BBE0F900FBE0F901F903C
:1022F000189508951F920F920FB60F920BB60F927A
:1023000011242F933F934F938F939F93EF93FF93BA
:102310008091D00082FD1DC04091D60020912A05F9
:1023200030912B052F5F3F4F2F73307080912C051C
:1023300090912D052817390771F0E0912A05F09149
:102340002B05E651FB4F408330932B0520932A0544
:1023500002C08091D600FF91EF919F918F914F9194
:102360003F912F910F900BBE0F900FBE0F901F90BB
:10237000189508951F920F920FB60F920BB60F92F9
:1023800011242F933F934F938F939F93EF93FF933A
:102390008091300182FD1DC0409136012091B2052F
:1023A0003091B3052F5F3F4F2F7330708091B4058C
:1023B0009091B5052817390771F0E091B205F091B9
:1023C000B305EE58FA4F40833093B3052093B2051E
:1023D00002C080913601FF91EF919F918F914F91B3
:1023E0003F912F910F900BBE0F900FBE0F901F903B
:1023F0001895E0910606F0910706E05CFF4F819189
:10240000919120813181821B930B8F739070892B66
:1024100009F0EFDEE0912806F0912906E05CFF4F1D
:102420008191919120813181821B930B8F739070E8
:10243000892B09F01EDFE0914A06F0914B06E05C23
:10244000FF4F8191919120813181821B930B8F737A
:102450009070892B09F04DDFE0916C06F0916D06CC
:10246000E05CFF4F8191919120813181821B930B20
:102470008F739070892B09F07CCF08951F920F9273
:102480000FB60F920BB60F9211242F933F938F9399
:102490009F93EF93FF9320915E0430915F048091AE
:1024A0006004909161042817390731F48091C100CC
:1024B0008F7D8093C10014C0E0916004F0916104AD
:1024C000E25EFB4F2081809160049091610401964F
:1024D0008F73907090936104809360042093C60082
:1024E000FF91EF919F918F913F912F910F900BBE94
:1024F0000F900FBE0F901F9018951F920F920FB65E
:102500000F920BB60F9211242F933F938F939F93AB
:10251000EF93FF932091E6043091E7048091E80463
:102520009091E9042817390731F48091C9008F7D13
:102530008093C90014C0E091E804F091E904EA55E1
:10254000FB4F20818091E8049091E90401968F73FC
:1025500090709093E9048093E8042093CE00FF915B
:10256000EF919F918F913F912F910F900BBE0F9004
:102570000FBE0F901F9018951F920F920FB60F92DB
:102580000BB60F9211242F933F938F939F93EF934A
:10259000FF9320916E0530916F05809170059091A9
:1025A00071052817390731F48091D1008F7D809310
:1025B000D10014C0E0917005F0917105E25DFA4F11
:1025C0002081809170059091710501968F739070B4
:1025D00090937105809370052093D600FF91EF9141
:1025E0009F918F913F912F910F900BBE0F900FBE37
:1025F0000F901F9018951F920F920FB60F920BB667
:102600000F9211242F933F938F939F93EF93FF93F8
:102610002091F6053091F7058091F8059091F90524
:102620002817390731F4809131018F7D8093310172
:1026300014C0E091F805F091F905EA54FA4F2081B1
:102640008091F8059091F90501968F7390709093A1
:10265000F9058093F80520933601FF91EF919F9142
:102660008F913F912F910F900BBE0F900FBE0F9047
:102670001F901895AF92BF92DF92EF92FF920F9347
:102680001F93CF93DF93EC017A018B01DD2440305F
:1026900081EE580780E0680780E0780711F0DD24BC
:1026A000D39491E0A92EB12CEC89FD89DD2069F04D
:1026B000C50108A002C0880F991F0A94E2F7808321
:1026C00060E079E08DE390E005C0108260E874E896
:1026D0008EE190E0A80197010E94111F2150304027
:1026E00040405040569547953795279580E12030DA
:1026F000380720F0DD2011F0DD24D6CFE889F989F4
:102700003083EA89FB89208319A2EE89FF89408101
:1027100021E030E0C9010C8C02C0880F991F0A9497
:10272000E2F7482B4083EE89FF894081C9010D8C77
:1027300002C0880F991F0A94E2F7482B4083EE8964
:10274000FF894081C9010E8C02C0880F991F0A942D
:10275000E2F7482B4083EE89FF8980810F8C02C00D
:10276000220F331F0A94E2F7209528232083DF915C
:10277000CF911F910F91FF90EF90DF90BF90AF909E
:102780000895DC011C96ED91FC911D97E05CFF4FD4
:102790002191319180819181281B390B2F733070E9
:1027A000C9010895DC011C96ED91FC911D97E05C38
:1027B000FF4F20813181E054F040DF01AE5BBF4F1D
:1027C0008D919C9111972817390719F42FEF3FEF3E
:1027D00007C08D919C91E80FF91F8081282F30E070
:1027E000C9010895DC011C96ED91FC911D97E05CF8
:1027F000FF4F20813181E054F040DF01AE5BBF4FDD
:102800008D919C9111972817390719F42FEF3FEFFD
:1028100010C08D919C911197E80FF91F20818D9127
:102820009C91119701968F73907011969C938E9343
:1028300030E0C9010895DC0191968C91919788232D
:1028400039F05496ED91FC915597808186FFF9CF30
:1028500091961C920895CF93DF93EC01EE85FF854E
:10286000E05CFF4F20813181E054F0402F5F3F4F0B
:102870002F733070DF01AE5BBF4F8D919C9111972C
:1028800028173907D1F3E05CFF4F80819181E05434
:10289000F040E80FF91F6083EE85FF85E05CFF4F95
:1028A00031832083EE89FF89208181E090E00F8CC5
:1028B00002C0880F991F0A94E2F7282B208381E039
:1028C00089A3EC89FD8980818064808381E090E028
:1028D000DF91CF9108951F931092FD051092FC0592
:1028E00028EE33E040E050E02093FE053093FF05F2
:1028F000409300065093010663E372E07093FB057A
:102900006093FA058AED93E090930706809306069C
:102910008EE194E0909309068093080685EC90E0A0
:1029200090930B0680930A0684EC90E090930D063A
:1029300080930C0680EC90E090930F0680930E0637
:1029400081EC90E0909311068093100682EC90E069
:10295000909313068093120686EC90E090931506F0
:102960008093140614E010931606B3E0B093170694
:10297000A7E0A0931806F5E0F0931906E1E0E093D4
:102980001A0610921F0610921E06209320063093FE
:102990002106409322065093230670931D066093F0
:1029A0001C0682E694E0909329068093280686EA26
:1029B00094E090932B0680932A068DEC90E0909300
:1029C0002D0680932C068CEC90E090932F0680933C
:1029D0002E0688EC90E0909331068093300689ECC7
:1029E00090E090933306809332068AEC90E09093C7
:1029F0003506809334068EEC90E0909337068093F2
:102A0000360610933806B0933906A0933A06F09331
:102A10003B06E0933C06109241061092400620933C
:102A20004206309343064093440650934506709304
:102A30003F0660933E068AEE94E090934B068093A7
:102A40004A068EE295E090934D0680934C0685ED04
:102A500090E090934F0680934E0684ED90E0909323
:102A600051068093500680ED90E09093530680933A
:102A7000520681ED90E0909355068093540682EDC6
:102A800090E0909357068093560686ED90E09093E1
:102A900059068093580610935A06B0935B06A0938C
:102AA0005C06F0935D06E0935E061092630610925A
:102AB0006206209364063093650640936606509341
:102AC0006706709361066093600682E795E09093D5
:102AD0006D0680936C0686EB95E090936F0680936D
:102AE0006E0685E391E0909371068093700684E30F
:102AF00091E0909373068093720680E391E0909347
:102B000075068093740681E391E090937706809335
:102B1000760682E391E0909379068093780686E3C7
:102B200091E090937B0680937A0610937C06B09395
:102B30007D06A0937E06F0937F06E09380061F91AA
:102B40000895CF93DF932ED14ADAC9EFD1E1EFD9BF
:102B50002097E9F34EDCFBCFCF92DF92EF92FF920A
:102B60000F931F93CF93DF937C016B018A01C0E029
:102B7000D0E00FC0D6016D916D01D701ED91FC91B0
:102B80000190F081E02DC7011995C80FD91F0150A0
:102B900010400115110571F7CE01DF91CF911F9102
:102BA0000F91FF90EF90DF90CF900895EF92FF92FA
:102BB0000F931F938C01DC01ED91FC910190F0814A
:102BC000E02D6DE019957C01D801ED91FC9101900B
:102BD000F081E02DC8016AE019959C012E0D3F1D82
:102BE000C9011F910F91FF90EF900895CF93DF934C
:102BF000EC016115710519F420E030E00FC0DB0134
:102C00000D900020E9F71197A61BB70BE881F98119
:102C10000280F381E02DAD0119959C01C901DF917E
:102C2000CF910895EF92FF920F931F937C01DEDF07
:102C30008C01C701BBDF080F191FC8011F910F913D
:102C4000FF90EF9008951F920F920FB60F921124EC
:102C50002F933F938F939F93AF93BF93809186065B
:102C600090918706A0918806B091890630918A06D6
:102C70000196A11DB11D232F2D5F2D3720F02D575B
:102C80000196A11DB11D20938A068093860690931C
:102C90008706A0938806B09389068091820690915A
:102CA0008306A0918406B09185060196A11DB11DF1
:102CB0008093820690938306A0938406B093850642
:102CC000BF91AF919F918F913F912F910F900FBE28
:102CD0000F901F9018958FB7F89420918606309129
:102CE000870640918806509189068FBFB901CA01B5
:102CF00008959B01AC017FB7F89480918206909172
:102D00008306A0918406B091850666B5A89B05C090
:102D10006F3F19F00196A11DB11D7FBFBA2FA92FDA
:102D2000982F8827860F911DA11DB11D62E0880F85
:102D3000991FAA1FBB1F6A95D1F7BC012DC0FFB711
:102D4000F8948091820690918306A0918406B091B8
:102D50008506E6B5A89B05C0EF3F19F00196A11DB9
:102D6000B11DFFBFBA2FA92F982F88278E0F911D55
:102D7000A11DB11DE2E0880F991FAA1FBB1FEA9594
:102D8000D1F7861B970B885E9340C8F221503040E4
:102D90004040504068517C4F211531054105510597
:102DA00071F60895789484B5826084BD84B581609D
:102DB00084BD85B5826085BD85B5816085BDEEE643
:102DC000F0E0808181608083E1E8F0E01082808122
:102DD00082608083808181608083E0E8F0E0808190
:102DE00081608083E1EBF0E0808184608083E0EBB0
:102DF000F0E0808181608083E1E9F0E080818260A1
:102E00008083808181608083E0E9F0E0808181605F
:102E10008083E1EAF0E0808182608083808181604C
:102E20008083E0EAF0E0808181608083E1E2F1E08C
:102E3000808182608083808181608083E0E2F1E034
:102E4000808181608083EAE7F0E080818460808314
:102E500080818260808380818160808380818068BE
:102E600080831092C1000895CF93DF93482F50E0E4
:102E7000CA0185519E4FFC0134914B555E4FFA01BA
:102E80008491882369F190E0880F991FFC01E95A29
:102E9000FE4FA591B491FC01EF58FE4FC591D4911E
:102EA000662351F42FB7F8948C91932F9095892332
:102EB0008C93888189230BC0623061F42FB7F8941A
:102EC0008C91932F909589238C938881832B888371
:102ED0002FBF06C09FB7F8948C91832B8C939FBF14
:102EE000DF91CF910895893009F449C08A30A0F468
:102EF000843051F1853040F4823079F1833000F52F
:102F0000813009F063C026C0873079F1883098F5A8
:102F1000863009F05BC025C08D3009F442C08E3088
:102F200028F48B30B1F18C30C0F52DC0803109F41C
:102F300042C0813109F445C08F3009F047C037C025
:102F4000809180008F7703C0809180008F7D809377
:102F50008000089584B58F7702C084B58F7D84BDCD
:102F600008958091B0008F7703C08091B0008F7D6D
:102F70008093B0000895809190008F7707C0809172
:102F800090008F7D03C080919000877F8093900098
:102F900008958091A0008F7707C08091A0008F7D59
:102FA00003C08091A000877F8093A0000895809146
:102FB00020018F7703C0809120018F7D80932001B5
:102FC000089580912001877F809320010895FF92CA
:102FD0000F931F93F62E482F50E0CA018F5C9D4F30
:102FE000FC012491CA0185519E4FFC0114914B555F
:102FF0005E4FFA0104910023C1F0222311F0822FC9
:1030000072DFE02FF0E0EE0FFF1FEF58FE4FA591AB
:10301000B4919FB7F894FF2021F48C9110958123EF
:1030200002C08C91812B8C939FBF1F910F91FF90B9
:103030000895FC0180918B06803390F480838F5F2C
:1030400080938B06815090E0FC01EE0FFF1FE80F8C
:10305000F91FE457F94F88EB9BE092838183089531
:103060008FEF80830895FC0120812033B8F58181A2
:10307000992787FD909548E850E0481B590B440F6D
:10308000551F440F551F6417750784F082819927D7
:1030900087FD909548E552E0481B590B440F551F9A
:1030A000440F551F641775070CF4AB014250504094
:1030B000CA01AA2797FDA095BA2F880F991FAA1FAA
:1030C000BB1F4FB7F89430E0F901EE0FFF1FE20F7E
:1030D000F31FE457F94F928381834FBF0895AF9256
:1030E000BF92CF92DF92EF92FF920F931F93CF93F5
:1030F000DF93EC019B0182E0603278070CF047C05F
:1031000077FF03C020E030E005C0653B710514F097
:1031100024EB30E000D00F92B901882777FD80952D
:10312000982F2981332727FD3095E8E8AE2EB12C62
:10313000A21AB30AAA0CBB1CAA0CBB1CCC24B7FC59
:10314000C094DC2CEA81FF27E7FDF09528E532E00A
:103150002E1B3F0B220F331F220F331F442737FD37
:103160004095542FEDB7FEB72183328343835483B8
:1031700020E030E040E050E004EBE02EF12C012DA7
:10318000112D38D29B010F900F900F900F90CE0110
:10319000B90169DFDF91CF911F910F91FF90EF90FF
:1031A000DF90CF90BF90AF900895CF92DF92EF92D3
:1031B000FF921F93CF93DF93EC01162F7A016901E1
:1031C0008881803308F08FC0862F61E04DDE8881D2
:1031D00090E0FC01EE0FFF1FE80FF91FE457F94FD5
:1031E0001F738081807C812B808380E292E08E1926
:1031F0009F0964E070E002D6698380E699E08C194B
:103200009D0964E070E0FAD56A83A8818A2F6CE09A
:10321000E9D5682F70E0AB01440F551F460F571FCB
:10322000440F551F440F551F20E030E0C901840FA3
:10323000951FFC01EE0FFF1FE80FF91FE457F94F30
:10324000808186FD44C02F5F3F4F2C30310571F7E0
:1032500053C01092800082E080938100109285001C
:1032600010928400B19A80916F00826080936F0009
:103270002EC06230710569F41092900082E0809354
:103280009100109295001092940088BB8093710079
:103290001EC06330710569F41092A00082E0809333
:1032A000A1001092A5001092A40089BB8093720027
:1032B0000EC0672B61F41092200182E080932101FF
:1032C00010922501109224018ABB809373008A2FEB
:1032D00090E0FC01EE0FFF1FE80FF91FE457F94FD4
:1032E0008081806480838881DF91CF911F91FF90DE
:1032F000EF90DF90CF9008956130710509F0B9CF5C
:10330000A8CF40E252E020E639E04FCFEF92FF92A3
:103310000F931F93CF93DF938B017A01EC01DC01B4
:10332000A45EB84F8C9187FF04C0FB01118210820C
:1033300036C0AE01440F551F4C0F5D1F440F551F83
:10334000440F551F2C91332727FD3095240F351F2F
:1033500080918B0690E0281739070CF58C919927FE
:1033600087FD9095840F951FFC01EE0FFF1FE80F5E
:10337000F91FE457F94F808186FF11C08C9199277E
:1033800087FD9095840F951FFC01EE0FFF1FE80F3E
:10339000F91FE457F94F80818F7360E018DEDE017A
:1033A000A45EB84F8C918F5F8C93AE01440F551F74
:1033B0004C0F5D1F440F551F440F551F2C91332791
:1033C00027FD3095240F351F80918B0690E028173C
:1033D00039070CF04CC08C918C300CF048C0F801CF
:1033E000208131818C91992787FD9095840F951FBD
:1033F000FC01EE0FFF1FE80FF91FE457F94F818121
:103400009281280F391FF701318320838C919927EE
:1034100087FD9095840F951FFC01EE0FFF1FE80FAD
:10342000F91FE457F94F808186FF29C08C919927B5
:1034300087FD9095840F951FFC01EE0FFF1FE80F8D
:10344000F91FE457F94F80818F7361E0C0DD17C029
:1034500080E49CE904C0F801808191810496F70121
:1034600091838083C45ED84F8FEF888308C0F801B2
:1034700080819181049680549C4950F3ECCFDF9178
:10348000CF911F910F91FF90EF9008951F920F928F
:103490000FB60F920BB60F9211242F933F934F93B9
:1034A0005F936F937F938F939F93AF93BF93EF93AC
:1034B000FF9380E090E064E271E048E251E026DFB3
:1034C000FF91EF91BF91AF919F918F917F916F91FC
:1034D0005F914F913F912F910F900BBE0F900FBEB8
:1034E0000F901F9018951F920F920FB60F920BB668
:1034F0000F9211242F933F934F935F936F937F937A
:103500008F939F93AF93BF93EF93FF9383E090E0EC
:1035100064EA70E048EA50E0F9DEFF91EF91BF9174
:10352000AF919F918F917F916F915F914F913F915B
:103530002F910F900BBE0F900FBE0F901F901895FC
:103540001F920F920FB60F920BB60F9211242F936A
:103550003F934F935F936F937F938F939F93AF931B
:10356000BF93EF93FF9382E090E064E970E048E955
:1035700050E0CCDEFF91EF91BF91AF919F918F9181
:103580007F916F915F914F913F912F910F900BBE63
:103590000F900FBE0F901F9018951F920F920FB6AD
:1035A0000F920BB60F9211242F933F934F935F937B
:1035B0006F937F938F939F93AF93BF93EF93FF93FB
:1035C00081E090E064E870E048E850E09FDEFF9121
:1035D000EF91BF91AF919F918F917F916F915F918B
:1035E0004F913F912F910F900BBE0F900FBE0F90F8
:1035F0001F9018952F923F924F925F926F927F92F9
:103600008F929F92AF92BF92CF92DF92EF92FF92F2
:103610000F931F93DF93CF93CDB7DEB73B014C01E0
:1036200019012A016E897F89888D998D6A197B0914
:103630008C099D09621A730A840A950AA4019301F0
:10364000B2D3E218F30804091509A80197010BD4B5
:103650002A0D3B1D4C1D5D1DB901CA01CF91DF91A3
:103660001F910F91FF90EF90DF90CF90BF90AF90A0
:103670009F908F907F906F905F904F903F902F9092
:1036800008959F939F77ABD10F9000203AF4905804
:10369000A2EA2AED3FE049E450E413D04CC250586E
:1036A000BB27AA270ED047C207D230F00CD220F099
:1036B00031F49F3F11F41EF4D7C10EF4E095E7FBFF
:1036C000CDC1E92F5AD280F3BA1762077307840776
:1036D000950718F071F49EF572C20EF4E0950B2E6A
:1036E000BA2FA02D0B01B90190010C01CA01A00154
:1036F0001124FF27591B99F0593F50F4503E68F1AF
:103700001A16F040A22F232F342F4427585FF3CFEF
:10371000469537952795A795F0405395C9F77EF4C0
:103720001F16BA0B620B730B840BBAF09150A1F009
:10373000FF0FBB1F661F771F881FC2F70EC0BA0F8F
:10374000621F731F841F48F4879577956795B79517
:10375000F7959E3F08F0B3CF9395880F08F099270F
:10376000EE0F979587950895A7D158F080E891E0DE
:1037700009F49EEFA8D128F040E851E059F45EEF3B
:1037800009C072C11CC2E92FE078F7D168F3092E95
:10379000052AC1F3261737074807590738F00E2EB8
:1037A00007F8E02569F0E025E0640AC0EF6307F858
:1037B000009407FADB01B9019D01DC01CA01AD01EA
:1037C000EF9346D0B8D10AD05F91552331F02BED5D
:1037D0003FE049E450FD49EC63CF0895DF93DD27D6
:1037E000B92FBF7740E85FE31616170648075B0757
:1037F00010F4D92FEFD19F938F937F936F93A8D21B
:10380000E4EEF0E034D197D12F913F914F915F9149
:10381000F4D1DD2349F09058A2EA2AED3FE049ECCB
:103820005FE3D0785D274DDFDF9185C154D1E3950B
:1038300093C10CD080C147D140F03ED130F021F48B
:103840005F3F19F00BC15111BBC10EC196D198F366
:103850009923C9F35523B1F3951B550BBB27AA2711
:1038600062177307840738F09F5F5F4F220F331F83
:10387000441FAA1FA9F333D00E2E3AF0E0E830D04F
:1038800091505040E695001CCAF729D0FE2F27D052
:10389000660F771F881FBB1F261737074807AB0720
:1038A000B0E809F0BB0B802DBF01FF2793585F4F95
:1038B0002AF09E3F510568F0D1C082C15F3FECF312
:1038C000983EDCF3869577956795B795F7959F5F5A
:1038D000C9F7880F911D9695879597F90895E1E0AE
:1038E000660F771F881FBB1F621773078407BA070D
:1038F00020F0621B730B840BBA0BEE1F88F7E09568
:10390000089504D06894B1115BC108953ED188F048
:103910009F5790F0B92F9927B751A0F0D1F0660FBB
:10392000771F881F991F1AF0BA95C9F712C0B130D6
:1039300081F045D1B1E0089542C1672F782F8827E3
:10394000B85F39F0B93FCCF3869577956795B39515
:10395000D9F73EF490958095709561957F4F8F4F84
:103960009F4F0895E89409C097FB3EF49095809589
:10397000709561957F4F8F4F9F4F9923A9F0F92F35
:1039800096E9BB279395F695879577956795B795B3
:10399000F111F8CFFAF4BB0F11F460FF1BC06F5F99
:1039A0007F4F8F4F9F4F16C0882311F096E911C0AB
:1039B000772321F09EE8872F762F05C0662371F0CC
:1039C00096E8862F70E060E02AF09A95660F771FE0
:1039D000881FDAF7880F9695879597F90895DF93F2
:1039E000CF931F930F938B01EC01E1E1F1E03FD006
:1039F000A2D09801AE018B01EC0160E070E080E89C
:103A00009FE34DDE5BD19801AE010F911F91CF91E5
:103A1000DF91F3C0990F0008550FAA0BE0E8FEEF05
:103A200016161706E807F907C0F012161306E40782
:103A3000F50798F0621B730B840B950B39F40A267B
:103A400061F0232B242B252B21F408950A2609F459
:103A5000A140A6958FEF811D811D089597F99F675D
:103A600080E870E060E008959FEF80EC0895DF93B8
:103A7000CF931F930F93FF92EF92DF927B018C0104
:103A8000689405C0DA2EEF01B8D0FE01E894A59144
:103A90002591359145915591AEF3EF0112DEFE016E
:103AA0009701A801DA9479F7DF90EF90FF900F91DA
:103AB0001F91CF91DF91089500240A9416161706DE
:103AC00018060906089500240A941216130614060F
:103AD00005060895C9CF59D0E8F3E894EFEFBB2766
:103AE0003FE048EC5FE76B3D73078407950708F1FB
:103AF000FF279F57B25A6A4D7F40894CF04032F4FD
:103B0000BE556542704F8643FF4F0894EE1F91509B
:103B100030F0BB0F661F771F881FFF1FEBCF9EE79C
:103B2000882332F0BB0F661F771F881F9A95C1F755
:103B30009395E09510C1092E0394000C11F488238D
:103B400052F0BB0F40F4BF2B11F460FF04C06F5F55
:103B50007F4F8F4F9F4F0895EF93E0FF06C0A2EA7B
:103B60002AED3FE049EC5FEBACDDE5DF0F9003941D
:103B700001FC9058E9E3F1E005C157FD9058440F6E
:103B8000551F59F05F3F71F04795880F97FB991FBC
:103B900061F09F3F79F08795089512161306140679
:103BA000551FF2CF4695F1DF08C016161706180606
:103BB000991FF1CF86957105610508940895E894E1
:103BC000BB2766277727CB0197F9089523DF08F4F1
:103BD0008FEF08959B01AC0160E070E080E89FE307
:103BE00028CE0BD0A8CF68DF28F06DDF18F0952322
:103BF00009F034CF39CF1124E3CFBFDFA0F3959F75
:103C0000D1F3950F50E0551F629FF001729FBB27C3
:103C1000F00DB11D639FAA27F00DB11DAA1F649F6F
:103C20006627B00DA11D661F829F2227B00DA11D22
:103C3000621F739FB00DA11D621F839FA00D611DA8
:103C4000221F749F3327A00D611D231F849F600DC9
:103C5000211D822F762F6A2F11249F5750408AF002
:103C6000E1F088234AF0EE0FFF1FBB1F661F771F8E
:103C7000881F91505040A9F79E3F510570F0EECE3D
:103C80009FCF5F3FECF3983EDCF386957795679581
:103C9000B795F795E7959F5FC1F7FE2B880F911DAC
:103CA0009695879597F908959F9315DF0F9007FCD8
:103CB000EE5F52CF11F40EF4D7CE4DC066DFD0F3D5
:103CC0009923D9F3CEF39F57550B87FF54D05695C0
:103CD0009795B0E020F4660F771F881FBB1F1F93D6
:103CE0000F9300249001A0018001F001A0E80E0FC5
:103CF0001F1F0A1E511D601B710B8009B50B48F474
:103D0000600F711F801DB51F0E1B1F0B0A0A510982
:103D100007C02E0F3F1F4A1F0E0F1F1F0A1E511DE7
:103D2000660F771F881FBB1FA695F795E795F8F6D6
:103D30000617170708065B07211D311D411D0F914E
:103D40001F91B901842F9158880F969587950895F2
:103D50009B01AC0146CF9F3F49F0915028F48695D6
:103D600077956795B7959F5F80389F4F880F969599
:103D7000879597F9089591505040660F771F881FD7
:103D8000D2F708959F938F937F936F93FF93EF9351
:103D90009B01AC0126DFEF91FF9169DE2F913F91EE
:103DA0004F915F911ECF629FD001739FF001829F60
:103DB000E00DF11D649FE00DF11D929FF00D839FBA
:103DC000F00D749FF00D659FF00D9927729FB00D57
:103DD000E11DF91F639FB00DE11DF91FBD01CF016A
:103DE00011240895991B79E004C0991F961708F0D3
:103DF000961B881F7A95C9F78095089597FB092E21
:103E000007260AD077FD04D049D006D000201AF446
:103E1000709561957F4F0895F6F7909581959F4F26
:103E20000895A1E21A2EAA1BBB1BFD010DC0AA1FFB
:103E3000BB1FEE1FFF1FA217B307E407F50720F013
:103E4000A21BB30BE40BF50B661F771F881F991F8E
:103E50001A9469F760957095809590959B01AC01D7
:103E6000BD01CF01089597FB092E05260ED057FD01
:103E700004D0D7DF0AD0001C38F450954095309517
:103E800021953F4F4F4F5F4F0895F6F790958095DE
:103E9000709561957F4F8F4F9F4F0895AA1BBB1B55
:103EA00051E107C0AA1FBB1FA617B70710F0A61B3A
:103EB000B70B881F991F5A95A9F780959095BC015B
:103EC000CD010895EE0FFF1F0590F491E02D199498
:043ED000F894FFCF94
:103ED400416961636F732048657861706F64002085
:103EE40000240700000D0000000300060009000C78
:103EF400000F0001000300010003000100030000A3
:103F04000000002B14AC15C113F213D2131B1400C0
:00000001FF
